{
  "_format": "hh-sol-artifact-1",
  "contractName": "VideoNFTMarketplace",
  "sourceName": "contracts/VideoNFTMarketplace.sol",
  "abi": [
    {
      "inputs": [],
      "stateMutability": "nonpayable",
      "type": "constructor"
    },
    {
      "inputs": [
        {
          "internalType": "address",
          "name": "sender",
          "type": "address"
        },
        {
          "internalType": "uint256",
          "name": "tokenId",
          "type": "uint256"
        },
        {
          "internalType": "address",
          "name": "owner",
          "type": "address"
        }
      ],
      "name": "ERC721IncorrectOwner",
      "type": "error"
    },
    {
      "inputs": [
        {
          "internalType": "address",
          "name": "operator",
          "type": "address"
        },
        {
          "internalType": "uint256",
          "name": "tokenId",
          "type": "uint256"
        }
      ],
      "name": "ERC721InsufficientApproval",
      "type": "error"
    },
    {
      "inputs": [
        {
          "internalType": "address",
          "name": "approver",
          "type": "address"
        }
      ],
      "name": "ERC721InvalidApprover",
      "type": "error"
    },
    {
      "inputs": [
        {
          "internalType": "address",
          "name": "operator",
          "type": "address"
        }
      ],
      "name": "ERC721InvalidOperator",
      "type": "error"
    },
    {
      "inputs": [
        {
          "internalType": "address",
          "name": "owner",
          "type": "address"
        }
      ],
      "name": "ERC721InvalidOwner",
      "type": "error"
    },
    {
      "inputs": [
        {
          "internalType": "address",
          "name": "receiver",
          "type": "address"
        }
      ],
      "name": "ERC721InvalidReceiver",
      "type": "error"
    },
    {
      "inputs": [
        {
          "internalType": "address",
          "name": "sender",
          "type": "address"
        }
      ],
      "name": "ERC721InvalidSender",
      "type": "error"
    },
    {
      "inputs": [
        {
          "internalType": "uint256",
          "name": "tokenId",
          "type": "uint256"
        }
      ],
      "name": "ERC721NonexistentToken",
      "type": "error"
    },
    {
      "inputs": [
        {
          "internalType": "address",
          "name": "owner",
          "type": "address"
        }
      ],
      "name": "OwnableInvalidOwner",
      "type": "error"
    },
    {
      "inputs": [
        {
          "internalType": "address",
          "name": "account",
          "type": "address"
        }
      ],
      "name": "OwnableUnauthorizedAccount",
      "type": "error"
    },
    {
      "anonymous": false,
      "inputs": [
        {
          "indexed": true,
          "internalType": "address",
          "name": "owner",
          "type": "address"
        },
        {
          "indexed": true,
          "internalType": "address",
          "name": "approved",
          "type": "address"
        },
        {
          "indexed": true,
          "internalType": "uint256",
          "name": "tokenId",
          "type": "uint256"
        }
      ],
      "name": "Approval",
      "type": "event"
    },
    {
      "anonymous": false,
      "inputs": [
        {
          "indexed": true,
          "internalType": "address",
          "name": "owner",
          "type": "address"
        },
        {
          "indexed": true,
          "internalType": "address",
          "name": "operator",
          "type": "address"
        },
        {
          "indexed": false,
          "internalType": "bool",
          "name": "approved",
          "type": "bool"
        }
      ],
      "name": "ApprovalForAll",
      "type": "event"
    },
    {
      "anonymous": false,
      "inputs": [
        {
          "indexed": false,
          "internalType": "uint256",
          "name": "_fromTokenId",
          "type": "uint256"
        },
        {
          "indexed": false,
          "internalType": "uint256",
          "name": "_toTokenId",
          "type": "uint256"
        }
      ],
      "name": "BatchMetadataUpdate",
      "type": "event"
    },
    {
      "anonymous": false,
      "inputs": [
        {
          "indexed": false,
          "internalType": "uint256",
          "name": "_tokenId",
          "type": "uint256"
        }
      ],
      "name": "MetadataUpdate",
      "type": "event"
    },
    {
      "anonymous": false,
      "inputs": [
        {
          "indexed": true,
          "internalType": "uint256",
          "name": "itemId",
          "type": "uint256"
        },
        {
          "indexed": false,
          "internalType": "uint256",
          "name": "videoTokenId",
          "type": "uint256"
        },
        {
          "indexed": false,
          "internalType": "uint256",
          "name": "extraTokenId",
          "type": "uint256"
        },
        {
          "indexed": false,
          "internalType": "uint256",
          "name": "price",
          "type": "uint256"
        }
      ],
      "name": "NFTMinted",
      "type": "event"
    },
    {
      "anonymous": false,
      "inputs": [
        {
          "indexed": true,
          "internalType": "uint256",
          "name": "itemId",
          "type": "uint256"
        },
        {
          "indexed": false,
          "internalType": "address",
          "name": "buyer",
          "type": "address"
        },
        {
          "indexed": false,
          "internalType": "uint256",
          "name": "price",
          "type": "uint256"
        }
      ],
      "name": "NFTSold",
      "type": "event"
    },
    {
      "anonymous": false,
      "inputs": [
        {
          "indexed": true,
          "internalType": "address",
          "name": "previousOwner",
          "type": "address"
        },
        {
          "indexed": true,
          "internalType": "address",
          "name": "newOwner",
          "type": "address"
        }
      ],
      "name": "OwnershipTransferred",
      "type": "event"
    },
    {
      "anonymous": false,
      "inputs": [
        {
          "indexed": true,
          "internalType": "address",
          "name": "from",
          "type": "address"
        },
        {
          "indexed": true,
          "internalType": "address",
          "name": "to",
          "type": "address"
        },
        {
          "indexed": true,
          "internalType": "uint256",
          "name": "tokenId",
          "type": "uint256"
        }
      ],
      "name": "Transfer",
      "type": "event"
    },
    {
      "inputs": [
        {
          "internalType": "address",
          "name": "to",
          "type": "address"
        },
        {
          "internalType": "uint256",
          "name": "tokenId",
          "type": "uint256"
        }
      ],
      "name": "approve",
      "outputs": [],
      "stateMutability": "nonpayable",
      "type": "function"
    },
    {
      "inputs": [
        {
          "internalType": "address",
          "name": "owner",
          "type": "address"
        }
      ],
      "name": "balanceOf",
      "outputs": [
        {
          "internalType": "uint256",
          "name": "",
          "type": "uint256"
        }
      ],
      "stateMutability": "view",
      "type": "function"
    },
    {
      "inputs": [
        {
          "internalType": "uint256",
          "name": "itemId",
          "type": "uint256"
        }
      ],
      "name": "buyNFT",
      "outputs": [],
      "stateMutability": "payable",
      "type": "function"
    },
    {
      "inputs": [
        {
          "internalType": "uint256",
          "name": "tokenId",
          "type": "uint256"
        }
      ],
      "name": "getApproved",
      "outputs": [
        {
          "internalType": "address",
          "name": "",
          "type": "address"
        }
      ],
      "stateMutability": "view",
      "type": "function"
    },
    {
      "inputs": [
        {
          "internalType": "address",
          "name": "owner",
          "type": "address"
        },
        {
          "internalType": "address",
          "name": "operator",
          "type": "address"
        }
      ],
      "name": "isApprovedForAll",
      "outputs": [
        {
          "internalType": "bool",
          "name": "",
          "type": "bool"
        }
      ],
      "stateMutability": "view",
      "type": "function"
    },
    {
      "inputs": [
        {
          "internalType": "uint256",
          "name": "",
          "type": "uint256"
        }
      ],
      "name": "items",
      "outputs": [
        {
          "internalType": "uint256",
          "name": "videoTokenId",
          "type": "uint256"
        },
        {
          "internalType": "uint256",
          "name": "extraTokenId",
          "type": "uint256"
        },
        {
          "internalType": "uint256",
          "name": "price",
          "type": "uint256"
        },
        {
          "internalType": "address",
          "name": "owner",
          "type": "address"
        }
      ],
      "stateMutability": "view",
      "type": "function"
    },
    {
      "inputs": [
        {
          "internalType": "string",
          "name": "videoTokenURI",
          "type": "string"
        },
        {
          "internalType": "string",
          "name": "extraTokenURI",
          "type": "string"
        },
        {
          "internalType": "uint256",
          "name": "price",
          "type": "uint256"
        }
      ],
      "name": "mintVideoNFT",
      "outputs": [
        {
          "internalType": "uint256",
          "name": "itemId",
          "type": "uint256"
        }
      ],
      "stateMutability": "nonpayable",
      "type": "function"
    },
    {
      "inputs": [],
      "name": "name",
      "outputs": [
        {
          "internalType": "string",
          "name": "",
          "type": "string"
        }
      ],
      "stateMutability": "view",
      "type": "function"
    },
    {
      "inputs": [],
      "name": "owner",
      "outputs": [
        {
          "internalType": "address",
          "name": "",
          "type": "address"
        }
      ],
      "stateMutability": "view",
      "type": "function"
    },
    {
      "inputs": [
        {
          "internalType": "uint256",
          "name": "tokenId",
          "type": "uint256"
        }
      ],
      "name": "ownerOf",
      "outputs": [
        {
          "internalType": "address",
          "name": "",
          "type": "address"
        }
      ],
      "stateMutability": "view",
      "type": "function"
    },
    {
      "inputs": [],
      "name": "renounceOwnership",
      "outputs": [],
      "stateMutability": "nonpayable",
      "type": "function"
    },
    {
      "inputs": [
        {
          "internalType": "address",
          "name": "from",
          "type": "address"
        },
        {
          "internalType": "address",
          "name": "to",
          "type": "address"
        },
        {
          "internalType": "uint256",
          "name": "tokenId",
          "type": "uint256"
        }
      ],
      "name": "safeTransferFrom",
      "outputs": [],
      "stateMutability": "nonpayable",
      "type": "function"
    },
    {
      "inputs": [
        {
          "internalType": "address",
          "name": "from",
          "type": "address"
        },
        {
          "internalType": "address",
          "name": "to",
          "type": "address"
        },
        {
          "internalType": "uint256",
          "name": "tokenId",
          "type": "uint256"
        },
        {
          "internalType": "bytes",
          "name": "data",
          "type": "bytes"
        }
      ],
      "name": "safeTransferFrom",
      "outputs": [],
      "stateMutability": "nonpayable",
      "type": "function"
    },
    {
      "inputs": [
        {
          "internalType": "address",
          "name": "operator",
          "type": "address"
        },
        {
          "internalType": "bool",
          "name": "approved",
          "type": "bool"
        }
      ],
      "name": "setApprovalForAll",
      "outputs": [],
      "stateMutability": "nonpayable",
      "type": "function"
    },
    {
      "inputs": [
        {
          "internalType": "bytes4",
          "name": "interfaceId",
          "type": "bytes4"
        }
      ],
      "name": "supportsInterface",
      "outputs": [
        {
          "internalType": "bool",
          "name": "",
          "type": "bool"
        }
      ],
      "stateMutability": "view",
      "type": "function"
    },
    {
      "inputs": [],
      "name": "symbol",
      "outputs": [
        {
          "internalType": "string",
          "name": "",
          "type": "string"
        }
      ],
      "stateMutability": "view",
      "type": "function"
    },
    {
      "inputs": [
        {
          "internalType": "uint256",
          "name": "tokenId",
          "type": "uint256"
        }
      ],
      "name": "tokenURI",
      "outputs": [
        {
          "internalType": "string",
          "name": "",
          "type": "string"
        }
      ],
      "stateMutability": "view",
      "type": "function"
    },
    {
      "inputs": [
        {
          "internalType": "address",
          "name": "from",
          "type": "address"
        },
        {
          "internalType": "address",
          "name": "to",
          "type": "address"
        },
        {
          "internalType": "uint256",
          "name": "tokenId",
          "type": "uint256"
        }
      ],
      "name": "transferFrom",
      "outputs": [],
      "stateMutability": "nonpayable",
      "type": "function"
    },
    {
      "inputs": [
        {
          "internalType": "address",
          "name": "newOwner",
          "type": "address"
        }
      ],
      "name": "transferOwnership",
      "outputs": [],
      "stateMutability": "nonpayable",
      "type": "function"
    }
  ],
  "bytecode": "0x60806040526001600855600160095534801561001a57600080fd5b50336040518060400160405280600881526020017f566964656f4e46540000000000000000000000000000000000000000000000008152506040518060400160405280600481526020017f564e46540000000000000000000000000000000000000000000000000000000081525081600090816100979190610447565b5080600190816100a79190610447565b505050600073ffffffffffffffffffffffffffffffffffffffff168173ffffffffffffffffffffffffffffffffffffffff160361011c5760006040517f1e4fbdf7000000000000000000000000000000000000000000000000000000008152600401610113919061055a565b60405180910390fd5b61012b8161013160201b60201c565b50610575565b6000600760009054906101000a900473ffffffffffffffffffffffffffffffffffffffff16905081600760006101000a81548173ffffffffffffffffffffffffffffffffffffffff021916908373ffffffffffffffffffffffffffffffffffffffff1602179055508173ffffffffffffffffffffffffffffffffffffffff168173ffffffffffffffffffffffffffffffffffffffff167f8be0079c531659141344cd1fd0a4f28419497f9722a3daafe3b4186f6b6457e060405160405180910390a35050565b600081519050919050565b7f4e487b7100000000000000000000000000000000000000000000000000000000600052604160045260246000fd5b7f4e487b7100000000000000000000000000000000000000000000000000000000600052602260045260246000fd5b6000600282049050600182168061027857607f821691505b60208210810361028b5761028a610231565b5b50919050565b60008190508160005260206000209050919050565b60006020601f8301049050919050565b600082821b905092915050565b6000600883026102f37fffffffffffffffffffffffffffffffffffffffffffffffffffffffffffffffff826102b6565b6102fd86836102b6565b95508019841693508086168417925050509392505050565b6000819050919050565b6000819050919050565b600061034461033f61033a84610315565b61031f565b610315565b9050919050565b6000819050919050565b61035e83610329565b61037261036a8261034b565b8484546102c3565b825550505050565b600090565b61038761037a565b610392818484610355565b505050565b5b818110156103b6576103ab60008261037f565b600181019050610398565b5050565b601f8211156103fb576103cc81610291565b6103d5846102a6565b810160208510156103e4578190505b6103f86103f0856102a6565b830182610397565b50505b505050565b600082821c905092915050565b600061041e60001984600802610400565b1980831691505092915050565b6000610437838361040d565b9150826002028217905092915050565b610450826101f7565b67ffffffffffffffff81111561046957610468610202565b5b6104738254610260565b61047e8282856103ba565b600060209050601f8311600181146104b1576000841561049f578287015190505b6104a9858261042b565b865550610511565b601f1984166104bf86610291565b60005b828110156104e7578489015182556001820191506020850194506020810190506104c2565b868310156105045784890151610500601f89168261040d565b8355505b6001600288020188555050505b505050505050565b600073ffffffffffffffffffffffffffffffffffffffff82169050919050565b600061054482610519565b9050919050565b61055481610539565b82525050565b600060208201905061056f600083018461054b565b92915050565b6130c6806105846000396000f3fe6080604052600436106101145760003560e01c8063715018a6116100a0578063b88d4fde11610064578063b88d4fde146103a2578063bfb231d2146103cb578063c87b56dd1461040b578063e985e9c514610448578063f2fde38b1461048557610114565b8063715018a6146102cf5780638da5cb5b146102e657806395d89b4114610311578063a22cb4651461033c578063acbbe19b1461036557610114565b806323b872dd116100e757806323b872dd146101e757806342842e0e1461021057806351ed8288146102395780636352211e1461025557806370a082311461029257610114565b806301ffc9a71461011957806306fdde0314610156578063081812fc14610181578063095ea7b3146101be575b600080fd5b34801561012557600080fd5b50610140600480360381019061013b9190612211565b6104ae565b60405161014d9190612259565b60405180910390f35b34801561016257600080fd5b5061016b61050f565b6040516101789190612304565b60405180910390f35b34801561018d57600080fd5b506101a860048036038101906101a3919061235c565b6105a1565b6040516101b591906123ca565b60405180910390f35b3480156101ca57600080fd5b506101e560048036038101906101e09190612411565b6105bd565b005b3480156101f357600080fd5b5061020e60048036038101906102099190612451565b6105d3565b005b34801561021c57600080fd5b5061023760048036038101906102329190612451565b6106d5565b005b610253600480360381019061024e919061235c565b6106f5565b005b34801561026157600080fd5b5061027c6004803603810190610277919061235c565b6109db565b60405161028991906123ca565b60405180910390f35b34801561029e57600080fd5b506102b960048036038101906102b491906124a4565b6109ed565b6040516102c691906124e0565b60405180910390f35b3480156102db57600080fd5b506102e4610aa7565b005b3480156102f257600080fd5b506102fb610abb565b60405161030891906123ca565b60405180910390f35b34801561031d57600080fd5b50610326610ae5565b6040516103339190612304565b60405180910390f35b34801561034857600080fd5b50610363600480360381019061035e9190612527565b610b77565b005b34801561037157600080fd5b5061038c6004803603810190610387919061269c565b610b8d565b60405161039991906124e0565b60405180910390f35b3480156103ae57600080fd5b506103c960048036038101906103c491906127c8565b610d67565b005b3480156103d757600080fd5b506103f260048036038101906103ed919061235c565b610d8c565b604051610402949392919061284b565b60405180910390f35b34801561041757600080fd5b50610432600480360381019061042d919061235c565b610ddc565b60405161043f9190612304565b60405180910390f35b34801561045457600080fd5b5061046f600480360381019061046a9190612890565b610eef565b60405161047c9190612259565b60405180910390f35b34801561049157600080fd5b506104ac60048036038101906104a791906124a4565b610f83565b005b6000634906490660e01b7bffffffffffffffffffffffffffffffffffffffffffffffffffffffff1916827bffffffffffffffffffffffffffffffffffffffffffffffffffffffff19161480610508575061050782611009565b5b9050919050565b60606000805461051e906128ff565b80601f016020809104026020016040519081016040528092919081815260200182805461054a906128ff565b80156105975780601f1061056c57610100808354040283529160200191610597565b820191906000526020600020905b81548152906001019060200180831161057a57829003601f168201915b5050505050905090565b60006105ac826110eb565b506105b682611173565b9050919050565b6105cf82826105ca6111b0565b6111b8565b5050565b600073ffffffffffffffffffffffffffffffffffffffff168273ffffffffffffffffffffffffffffffffffffffff16036106455760006040517f64a0ae9200000000000000000000000000000000000000000000000000000000815260040161063c91906123ca565b60405180910390fd5b600061065983836106546111b0565b6111ca565b90508373ffffffffffffffffffffffffffffffffffffffff168173ffffffffffffffffffffffffffffffffffffffff16146106cf578382826040517f64283d7b0000000000000000000000000000000000000000000000000000000081526004016106c693929190612930565b60405180910390fd5b50505050565b6106f083838360405180602001604052806000815250610d67565b505050565b6000600a60008381526020019081526020016000209050600073ffffffffffffffffffffffffffffffffffffffff168160030160009054906101000a900473ffffffffffffffffffffffffffffffffffffffff1673ffffffffffffffffffffffffffffffffffffffff160361079f576040517f08c379a0000000000000000000000000000000000000000000000000000000008152600401610796906129b3565b60405180910390fd5b80600201543410156107e6576040517f08c379a00000000000000000000000000000000000000000000000000000000081526004016107dd90612a1f565b60405180910390fd5b60008160030160009054906101000a900473ffffffffffffffffffffffffffffffffffffffff1690503373ffffffffffffffffffffffffffffffffffffffff168173ffffffffffffffffffffffffffffffffffffffff160361087d576040517f08c379a000000000000000000000000000000000000000000000000000000000815260040161087490612a8b565b60405180910390fd5b61088c813384600001546113e4565b60008260010154146108a8576108a7813384600101546113e4565b5b338260030160006101000a81548173ffffffffffffffffffffffffffffffffffffffff021916908373ffffffffffffffffffffffffffffffffffffffff160217905550827f6329e40c0365262ebbff5ca819385c2b9713dcaa050ed07866d72c441395699a338460020154604051610921929190612aab565b60405180910390a260008173ffffffffffffffffffffffffffffffffffffffff163460405161094f90612b05565b60006040518083038185875af1925050503d806000811461098c576040519150601f19603f3d011682016040523d82523d6000602084013e610991565b606091505b50509050806109d5576040517f08c379a00000000000000000000000000000000000000000000000000000000081526004016109cc90612b66565b60405180910390fd5b50505050565b60006109e6826110eb565b9050919050565b60008073ffffffffffffffffffffffffffffffffffffffff168273ffffffffffffffffffffffffffffffffffffffff1603610a605760006040517f89c62b64000000000000000000000000000000000000000000000000000000008152600401610a5791906123ca565b60405180910390fd5b600360008373ffffffffffffffffffffffffffffffffffffffff1673ffffffffffffffffffffffffffffffffffffffff168152602001908152602001600020549050919050565b610aaf611551565b610ab960006115d8565b565b6000600760009054906101000a900473ffffffffffffffffffffffffffffffffffffffff16905090565b606060018054610af4906128ff565b80601f0160208091040260200160405190810160405280929190818152602001828054610b20906128ff565b8015610b6d5780601f10610b4257610100808354040283529160200191610b6d565b820191906000526020600020905b815481529060010190602001808311610b5057829003601f168201915b5050505050905090565b610b89610b826111b0565b838361169e565b5050565b6000610b97611551565b60008211610bda576040517f08c379a0000000000000000000000000000000000000000000000000000000008152600401610bd190612bd2565b60405180910390fd5b60096000815480929190610bed90612c21565b919050559050600060086000815480929190610c0890612c21565b919050559050610c1f610c19610abb565b8261180d565b610c298186611906565b60008085511115610c695760086000815480929190610c4790612c21565b919050559050610c5e610c58610abb565b8261180d565b610c688186611906565b5b6040518060800160405280838152602001828152602001858152602001610c8e610abb565b73ffffffffffffffffffffffffffffffffffffffff16815250600a600085815260200190815260200160002060008201518160000155602082015181600101556040820151816002015560608201518160030160006101000a81548173ffffffffffffffffffffffffffffffffffffffff021916908373ffffffffffffffffffffffffffffffffffffffff160217905550905050827fd87f5a46cb364a9408d162415b276e66acfc6d649629fbf49c6b467a80623677838387604051610d5693929190612c69565b60405180910390a250509392505050565b610d728484846105d3565b610d86610d7d6111b0565b85858585611962565b50505050565b600a6020528060005260406000206000915090508060000154908060010154908060020154908060030160009054906101000a900473ffffffffffffffffffffffffffffffffffffffff16905084565b6060610de7826110eb565b506000600660008481526020019081526020016000208054610e08906128ff565b80601f0160208091040260200160405190810160405280929190818152602001828054610e34906128ff565b8015610e815780601f10610e5657610100808354040283529160200191610e81565b820191906000526020600020905b815481529060010190602001808311610e6457829003601f168201915b505050505090506000610e92611b13565b90506000815103610ea7578192505050610eea565b600082511115610edc578082604051602001610ec4929190612cdc565b60405160208183030381529060405292505050610eea565b610ee584611b2a565b925050505b919050565b6000600560008473ffffffffffffffffffffffffffffffffffffffff1673ffffffffffffffffffffffffffffffffffffffff16815260200190815260200160002060008373ffffffffffffffffffffffffffffffffffffffff1673ffffffffffffffffffffffffffffffffffffffff16815260200190815260200160002060009054906101000a900460ff16905092915050565b610f8b611551565b600073ffffffffffffffffffffffffffffffffffffffff168173ffffffffffffffffffffffffffffffffffffffff1603610ffd5760006040517f1e4fbdf7000000000000000000000000000000000000000000000000000000008152600401610ff491906123ca565b60405180910390fd5b611006816115d8565b50565b60007f80ac58cd000000000000000000000000000000000000000000000000000000007bffffffffffffffffffffffffffffffffffffffffffffffffffffffff1916827bffffffffffffffffffffffffffffffffffffffffffffffffffffffff191614806110d457507f5b5e139f000000000000000000000000000000000000000000000000000000007bffffffffffffffffffffffffffffffffffffffffffffffffffffffff1916827bffffffffffffffffffffffffffffffffffffffffffffffffffffffff1916145b806110e457506110e382611b93565b5b9050919050565b6000806110f783611bfd565b9050600073ffffffffffffffffffffffffffffffffffffffff168173ffffffffffffffffffffffffffffffffffffffff160361116a57826040517f7e27328900000000000000000000000000000000000000000000000000000000815260040161116191906124e0565b60405180910390fd5b80915050919050565b60006004600083815260200190815260200160002060009054906101000a900473ffffffffffffffffffffffffffffffffffffffff169050919050565b600033905090565b6111c58383836001611c3a565b505050565b6000806111d684611bfd565b9050600073ffffffffffffffffffffffffffffffffffffffff168373ffffffffffffffffffffffffffffffffffffffff161461121857611217818486611dff565b5b600073ffffffffffffffffffffffffffffffffffffffff168173ffffffffffffffffffffffffffffffffffffffff16146112a95761125a600085600080611c3a565b6001600360008373ffffffffffffffffffffffffffffffffffffffff1673ffffffffffffffffffffffffffffffffffffffff168152602001908152602001600020600082825403925050819055505b600073ffffffffffffffffffffffffffffffffffffffff168573ffffffffffffffffffffffffffffffffffffffff161461132c576001600360008773ffffffffffffffffffffffffffffffffffffffff1673ffffffffffffffffffffffffffffffffffffffff168152602001908152602001600020600082825401925050819055505b846002600086815260200190815260200160002060006101000a81548173ffffffffffffffffffffffffffffffffffffffff021916908373ffffffffffffffffffffffffffffffffffffffff160217905550838573ffffffffffffffffffffffffffffffffffffffff168273ffffffffffffffffffffffffffffffffffffffff167fddf252ad1be2c89b69c2b068fc378daa952ba7f163c4a11628f55a4df523b3ef60405160405180910390a4809150509392505050565b600073ffffffffffffffffffffffffffffffffffffffff168273ffffffffffffffffffffffffffffffffffffffff16036114565760006040517f64a0ae9200000000000000000000000000000000000000000000000000000000815260040161144d91906123ca565b60405180910390fd5b6000611464838360006111ca565b9050600073ffffffffffffffffffffffffffffffffffffffff168173ffffffffffffffffffffffffffffffffffffffff16036114d757816040517f7e2732890000000000000000000000000000000000000000000000000000000081526004016114ce91906124e0565b60405180910390fd5b8373ffffffffffffffffffffffffffffffffffffffff168173ffffffffffffffffffffffffffffffffffffffff161461154b578382826040517f64283d7b00000000000000000000000000000000000000000000000000000000815260040161154293929190612930565b60405180910390fd5b50505050565b6115596111b0565b73ffffffffffffffffffffffffffffffffffffffff16611577610abb565b73ffffffffffffffffffffffffffffffffffffffff16146115d65761159a6111b0565b6040517f118cdaa70000000000000000000000000000000000000000000000000000000081526004016115cd91906123ca565b60405180910390fd5b565b6000600760009054906101000a900473ffffffffffffffffffffffffffffffffffffffff16905081600760006101000a81548173ffffffffffffffffffffffffffffffffffffffff021916908373ffffffffffffffffffffffffffffffffffffffff1602179055508173ffffffffffffffffffffffffffffffffffffffff168173ffffffffffffffffffffffffffffffffffffffff167f8be0079c531659141344cd1fd0a4f28419497f9722a3daafe3b4186f6b6457e060405160405180910390a35050565b600073ffffffffffffffffffffffffffffffffffffffff168273ffffffffffffffffffffffffffffffffffffffff160361170f57816040517f5b08ba1800000000000000000000000000000000000000000000000000000000815260040161170691906123ca565b60405180910390fd5b80600560008573ffffffffffffffffffffffffffffffffffffffff1673ffffffffffffffffffffffffffffffffffffffff16815260200190815260200160002060008473ffffffffffffffffffffffffffffffffffffffff1673ffffffffffffffffffffffffffffffffffffffff16815260200190815260200160002060006101000a81548160ff0219169083151502179055508173ffffffffffffffffffffffffffffffffffffffff168373ffffffffffffffffffffffffffffffffffffffff167f17307eab39ab6107e8899845ad3d59bd9653f200f220920489ca2b5937696c31836040516118009190612259565b60405180910390a3505050565b600073ffffffffffffffffffffffffffffffffffffffff168273ffffffffffffffffffffffffffffffffffffffff160361187f5760006040517f64a0ae9200000000000000000000000000000000000000000000000000000000815260040161187691906123ca565b60405180910390fd5b600061188d838360006111ca565b9050600073ffffffffffffffffffffffffffffffffffffffff168173ffffffffffffffffffffffffffffffffffffffff16146119015760006040517f73c6ac6e0000000000000000000000000000000000000000000000000000000081526004016118f891906123ca565b60405180910390fd5b505050565b806006600084815260200190815260200160002090816119269190612eac565b507ff8e1a15aba9398e019f0b49df1a4fde98ee17ae345cb5f6b5e2c27f5033e8ce78260405161195691906124e0565b60405180910390a15050565b60008373ffffffffffffffffffffffffffffffffffffffff163b1115611b0c578273ffffffffffffffffffffffffffffffffffffffff1663150b7a02868685856040518563ffffffff1660e01b81526004016119c19493929190612fd3565b6020604051808303816000875af19250505080156119fd57506040513d601f19601f820116820180604052508101906119fa9190613034565b60015b611a81573d8060008114611a2d576040519150601f19603f3d011682016040523d82523d6000602084013e611a32565b606091505b506000815103611a7957836040517f64a0ae92000000000000000000000000000000000000000000000000000000008152600401611a7091906123ca565b60405180910390fd5b805181602001fd5b63150b7a0260e01b7bffffffffffffffffffffffffffffffffffffffffffffffffffffffff1916817bffffffffffffffffffffffffffffffffffffffffffffffffffffffff191614611b0a57836040517f64a0ae92000000000000000000000000000000000000000000000000000000008152600401611b0191906123ca565b60405180910390fd5b505b5050505050565b606060405180602001604052806000815250905090565b6060611b35826110eb565b506000611b40611b13565b90506000815111611b605760405180602001604052806000815250611b8b565b80611b6a84611ec3565b604051602001611b7b929190612cdc565b6040516020818303038152906040525b915050919050565b60007f01ffc9a7000000000000000000000000000000000000000000000000000000007bffffffffffffffffffffffffffffffffffffffffffffffffffffffff1916827bffffffffffffffffffffffffffffffffffffffffffffffffffffffff1916149050919050565b60006002600083815260200190815260200160002060009054906101000a900473ffffffffffffffffffffffffffffffffffffffff169050919050565b8080611c735750600073ffffffffffffffffffffffffffffffffffffffff168273ffffffffffffffffffffffffffffffffffffffff1614155b15611da7576000611c83846110eb565b9050600073ffffffffffffffffffffffffffffffffffffffff168373ffffffffffffffffffffffffffffffffffffffff1614158015611cee57508273ffffffffffffffffffffffffffffffffffffffff168173ffffffffffffffffffffffffffffffffffffffff1614155b8015611d015750611cff8184610eef565b155b15611d4357826040517fa9fbf51f000000000000000000000000000000000000000000000000000000008152600401611d3a91906123ca565b60405180910390fd5b8115611da557838573ffffffffffffffffffffffffffffffffffffffff168273ffffffffffffffffffffffffffffffffffffffff167f8c5be1e5ebec7d5bd14f71427d1e84f3dd0314c0f7b2291e5b200ac8c7c3b92560405160405180910390a45b505b836004600085815260200190815260200160002060006101000a81548173ffffffffffffffffffffffffffffffffffffffff021916908373ffffffffffffffffffffffffffffffffffffffff16021790555050505050565b611e0a838383611f91565b611ebe57600073ffffffffffffffffffffffffffffffffffffffff168373ffffffffffffffffffffffffffffffffffffffff1603611e7f57806040517f7e273289000000000000000000000000000000000000000000000000000000008152600401611e7691906124e0565b60405180910390fd5b81816040517f177e802f000000000000000000000000000000000000000000000000000000008152600401611eb5929190612aab565b60405180910390fd5b505050565b606060006001611ed284612052565b01905060008167ffffffffffffffff811115611ef157611ef0612571565b5b6040519080825280601f01601f191660200182016040528015611f235781602001600182028036833780820191505090505b509050600082602001820190505b600115611f86578080600190039150507f3031323334353637383961626364656600000000000000000000000000000000600a86061a8153600a8581611f7a57611f79613061565b5b04945060008503611f31575b819350505050919050565b60008073ffffffffffffffffffffffffffffffffffffffff168373ffffffffffffffffffffffffffffffffffffffff161415801561204957508273ffffffffffffffffffffffffffffffffffffffff168473ffffffffffffffffffffffffffffffffffffffff16148061200a57506120098484610eef565b5b8061204857508273ffffffffffffffffffffffffffffffffffffffff1661203083611173565b73ffffffffffffffffffffffffffffffffffffffff16145b5b90509392505050565b600080600090507a184f03e93ff9f4daa797ed6e38ed64bf6a1f01000000000000000083106120b0577a184f03e93ff9f4daa797ed6e38ed64bf6a1f01000000000000000083816120a6576120a5613061565b5b0492506040810190505b6d04ee2d6d415b85acef810000000083106120ed576d04ee2d6d415b85acef810000000083816120e3576120e2613061565b5b0492506020810190505b662386f26fc10000831061211c57662386f26fc10000838161211257612111613061565b5b0492506010810190505b6305f5e1008310612145576305f5e100838161213b5761213a613061565b5b0492506008810190505b612710831061216a5761271083816121605761215f613061565b5b0492506004810190505b6064831061218d576064838161218357612182613061565b5b0492506002810190505b600a831061219c576001810190505b80915050919050565b6000604051905090565b600080fd5b600080fd5b60007fffffffff0000000000000000000000000000000000000000000000000000000082169050919050565b6121ee816121b9565b81146121f957600080fd5b50565b60008135905061220b816121e5565b92915050565b600060208284031215612227576122266121af565b5b6000612235848285016121fc565b91505092915050565b60008115159050919050565b6122538161223e565b82525050565b600060208201905061226e600083018461224a565b92915050565b600081519050919050565b600082825260208201905092915050565b60005b838110156122ae578082015181840152602081019050612293565b60008484015250505050565b6000601f19601f8301169050919050565b60006122d682612274565b6122e0818561227f565b93506122f0818560208601612290565b6122f9816122ba565b840191505092915050565b6000602082019050818103600083015261231e81846122cb565b905092915050565b6000819050919050565b61233981612326565b811461234457600080fd5b50565b60008135905061235681612330565b92915050565b600060208284031215612372576123716121af565b5b600061238084828501612347565b91505092915050565b600073ffffffffffffffffffffffffffffffffffffffff82169050919050565b60006123b482612389565b9050919050565b6123c4816123a9565b82525050565b60006020820190506123df60008301846123bb565b92915050565b6123ee816123a9565b81146123f957600080fd5b50565b60008135905061240b816123e5565b92915050565b60008060408385031215612428576124276121af565b5b6000612436858286016123fc565b925050602061244785828601612347565b9150509250929050565b60008060006060848603121561246a576124696121af565b5b6000612478868287016123fc565b9350506020612489868287016123fc565b925050604061249a86828701612347565b9150509250925092565b6000602082840312156124ba576124b96121af565b5b60006124c8848285016123fc565b91505092915050565b6124da81612326565b82525050565b60006020820190506124f560008301846124d1565b92915050565b6125048161223e565b811461250f57600080fd5b50565b600081359050612521816124fb565b92915050565b6000806040838503121561253e5761253d6121af565b5b600061254c858286016123fc565b925050602061255d85828601612512565b9150509250929050565b600080fd5b600080fd5b7f4e487b7100000000000000000000000000000000000000000000000000000000600052604160045260246000fd5b6125a9826122ba565b810181811067ffffffffffffffff821117156125c8576125c7612571565b5b80604052505050565b60006125db6121a5565b90506125e782826125a0565b919050565b600067ffffffffffffffff82111561260757612606612571565b5b612610826122ba565b9050602081019050919050565b82818337600083830152505050565b600061263f61263a846125ec565b6125d1565b90508281526020810184848401111561265b5761265a61256c565b5b61266684828561261d565b509392505050565b600082601f83011261268357612682612567565b5b813561269384826020860161262c565b91505092915050565b6000806000606084860312156126b5576126b46121af565b5b600084013567ffffffffffffffff8111156126d3576126d26121b4565b5b6126df8682870161266e565b935050602084013567ffffffffffffffff811115612700576126ff6121b4565b5b61270c8682870161266e565b925050604061271d86828701612347565b9150509250925092565b600067ffffffffffffffff82111561274257612741612571565b5b61274b826122ba565b9050602081019050919050565b600061276b61276684612727565b6125d1565b9050828152602081018484840111156127875761278661256c565b5b61279284828561261d565b509392505050565b600082601f8301126127af576127ae612567565b5b81356127bf848260208601612758565b91505092915050565b600080600080608085870312156127e2576127e16121af565b5b60006127f0878288016123fc565b9450506020612801878288016123fc565b935050604061281287828801612347565b925050606085013567ffffffffffffffff811115612833576128326121b4565b5b61283f8782880161279a565b91505092959194509250565b600060808201905061286060008301876124d1565b61286d60208301866124d1565b61287a60408301856124d1565b61288760608301846123bb565b95945050505050565b600080604083850312156128a7576128a66121af565b5b60006128b5858286016123fc565b92505060206128c6858286016123fc565b9150509250929050565b7f4e487b7100000000000000000000000000000000000000000000000000000000600052602260045260246000fd5b6000600282049050600182168061291757607f821691505b60208210810361292a576129296128d0565b5b50919050565b600060608201905061294560008301866123bb565b61295260208301856124d1565b61295f60408301846123bb565b949350505050565b7f4974656d20646f6573206e6f7420657869737400000000000000000000000000600082015250565b600061299d60138361227f565b91506129a882612967565b602082019050919050565b600060208201905081810360008301526129cc81612990565b9050919050565b7f496e73756666696369656e74204554482073656e740000000000000000000000600082015250565b6000612a0960158361227f565b9150612a14826129d3565b602082019050919050565b60006020820190508181036000830152612a38816129fc565b9050919050565b7f43616e6e6f742062757920796f7572206f776e204e4654000000000000000000600082015250565b6000612a7560178361227f565b9150612a8082612a3f565b602082019050919050565b60006020820190508181036000830152612aa481612a68565b9050919050565b6000604082019050612ac060008301856123bb565b612acd60208301846124d1565b9392505050565b600081905092915050565b50565b6000612aef600083612ad4565b9150612afa82612adf565b600082019050919050565b6000612b1082612ae2565b9150819050919050565b7f455448207472616e73666572206661696c656400000000000000000000000000600082015250565b6000612b5060138361227f565b9150612b5b82612b1a565b602082019050919050565b60006020820190508181036000830152612b7f81612b43565b9050919050565b7f5072696365206d7573742062652067726561746572207468616e203000000000600082015250565b6000612bbc601c8361227f565b9150612bc782612b86565b602082019050919050565b60006020820190508181036000830152612beb81612baf565b9050919050565b7f4e487b7100000000000000000000000000000000000000000000000000000000600052601160045260246000fd5b6000612c2c82612326565b91507fffffffffffffffffffffffffffffffffffffffffffffffffffffffffffffffff8203612c5e57612c5d612bf2565b5b600182019050919050565b6000606082019050612c7e60008301866124d1565b612c8b60208301856124d1565b612c9860408301846124d1565b949350505050565b600081905092915050565b6000612cb682612274565b612cc08185612ca0565b9350612cd0818560208601612290565b80840191505092915050565b6000612ce88285612cab565b9150612cf48284612cab565b91508190509392505050565b60008190508160005260206000209050919050565b60006020601f8301049050919050565b600082821b905092915050565b600060088302612d627fffffffffffffffffffffffffffffffffffffffffffffffffffffffffffffffff82612d25565b612d6c8683612d25565b95508019841693508086168417925050509392505050565b6000819050919050565b6000612da9612da4612d9f84612326565b612d84565b612326565b9050919050565b6000819050919050565b612dc383612d8e565b612dd7612dcf82612db0565b848454612d32565b825550505050565b600090565b612dec612ddf565b612df7818484612dba565b505050565b5b81811015612e1b57612e10600082612de4565b600181019050612dfd565b5050565b601f821115612e6057612e3181612d00565b612e3a84612d15565b81016020851015612e49578190505b612e5d612e5585612d15565b830182612dfc565b50505b505050565b600082821c905092915050565b6000612e8360001984600802612e65565b1980831691505092915050565b6000612e9c8383612e72565b9150826002028217905092915050565b612eb582612274565b67ffffffffffffffff811115612ece57612ecd612571565b5b612ed882546128ff565b612ee3828285612e1f565b600060209050601f831160018114612f165760008415612f04578287015190505b612f0e8582612e90565b865550612f76565b601f198416612f2486612d00565b60005b82811015612f4c57848901518255600182019150602085019450602081019050612f27565b86831015612f695784890151612f65601f891682612e72565b8355505b6001600288020188555050505b505050505050565b600081519050919050565b600082825260208201905092915050565b6000612fa582612f7e565b612faf8185612f89565b9350612fbf818560208601612290565b612fc8816122ba565b840191505092915050565b6000608082019050612fe860008301876123bb565b612ff560208301866123bb565b61300260408301856124d1565b81810360608301526130148184612f9a565b905095945050505050565b60008151905061302e816121e5565b92915050565b60006020828403121561304a576130496121af565b5b60006130588482850161301f565b91505092915050565b7f4e487b7100000000000000000000000000000000000000000000000000000000600052601260045260246000fdfea2646970667358221220325a2999b6912019aa238a581d16fb4872843d5bd0e99d705d7a3a4dcf08f6aa64736f6c634300081c0033",
  "linkReferences": {},
  "deployedLinkReferences": {}
}