{
  "_format": "hh-sol-artifact-1",
  "contractName": "VideoNFTMarketplace",
  "sourceName": "contracts/VideoNFTMarketplace.sol",
  "abi": [
    {
      "inputs": [],
      "stateMutability": "nonpayable",
      "type": "constructor"
    },
    {
      "inputs": [
        {
          "internalType": "address",
          "name": "sender",
          "type": "address"
        },
        {
          "internalType": "uint256",
          "name": "tokenId",
          "type": "uint256"
        },
        {
          "internalType": "address",
          "name": "owner",
          "type": "address"
        }
      ],
      "name": "ERC721IncorrectOwner",
      "type": "error"
    },
    {
      "inputs": [
        {
          "internalType": "address",
          "name": "operator",
          "type": "address"
        },
        {
          "internalType": "uint256",
          "name": "tokenId",
          "type": "uint256"
        }
      ],
      "name": "ERC721InsufficientApproval",
      "type": "error"
    },
    {
      "inputs": [
        {
          "internalType": "address",
          "name": "approver",
          "type": "address"
        }
      ],
      "name": "ERC721InvalidApprover",
      "type": "error"
    },
    {
      "inputs": [
        {
          "internalType": "address",
          "name": "operator",
          "type": "address"
        }
      ],
      "name": "ERC721InvalidOperator",
      "type": "error"
    },
    {
      "inputs": [
        {
          "internalType": "address",
          "name": "owner",
          "type": "address"
        }
      ],
      "name": "ERC721InvalidOwner",
      "type": "error"
    },
    {
      "inputs": [
        {
          "internalType": "address",
          "name": "receiver",
          "type": "address"
        }
      ],
      "name": "ERC721InvalidReceiver",
      "type": "error"
    },
    {
      "inputs": [
        {
          "internalType": "address",
          "name": "sender",
          "type": "address"
        }
      ],
      "name": "ERC721InvalidSender",
      "type": "error"
    },
    {
      "inputs": [
        {
          "internalType": "uint256",
          "name": "tokenId",
          "type": "uint256"
        }
      ],
      "name": "ERC721NonexistentToken",
      "type": "error"
    },
    {
      "inputs": [
        {
          "internalType": "address",
          "name": "owner",
          "type": "address"
        }
      ],
      "name": "OwnableInvalidOwner",
      "type": "error"
    },
    {
      "inputs": [
        {
          "internalType": "address",
          "name": "account",
          "type": "address"
        }
      ],
      "name": "OwnableUnauthorizedAccount",
      "type": "error"
    },
    {
      "anonymous": false,
      "inputs": [
        {
          "indexed": true,
          "internalType": "address",
          "name": "owner",
          "type": "address"
        },
        {
          "indexed": true,
          "internalType": "address",
          "name": "approved",
          "type": "address"
        },
        {
          "indexed": true,
          "internalType": "uint256",
          "name": "tokenId",
          "type": "uint256"
        }
      ],
      "name": "Approval",
      "type": "event"
    },
    {
      "anonymous": false,
      "inputs": [
        {
          "indexed": true,
          "internalType": "address",
          "name": "owner",
          "type": "address"
        },
        {
          "indexed": true,
          "internalType": "address",
          "name": "operator",
          "type": "address"
        },
        {
          "indexed": false,
          "internalType": "bool",
          "name": "approved",
          "type": "bool"
        }
      ],
      "name": "ApprovalForAll",
      "type": "event"
    },
    {
      "anonymous": false,
      "inputs": [
        {
          "indexed": false,
          "internalType": "uint256",
          "name": "_fromTokenId",
          "type": "uint256"
        },
        {
          "indexed": false,
          "internalType": "uint256",
          "name": "_toTokenId",
          "type": "uint256"
        }
      ],
      "name": "BatchMetadataUpdate",
      "type": "event"
    },
    {
      "anonymous": false,
      "inputs": [
        {
          "indexed": false,
          "internalType": "uint256",
          "name": "_tokenId",
          "type": "uint256"
        }
      ],
      "name": "MetadataUpdate",
      "type": "event"
    },
    {
      "anonymous": false,
      "inputs": [
        {
          "indexed": true,
          "internalType": "uint256",
          "name": "itemId",
          "type": "uint256"
        },
        {
          "indexed": false,
          "internalType": "uint256",
          "name": "videoTokenId",
          "type": "uint256"
        },
        {
          "indexed": false,
          "internalType": "uint256",
          "name": "extraTokenId",
          "type": "uint256"
        },
        {
          "indexed": false,
          "internalType": "uint256",
          "name": "price",
          "type": "uint256"
        }
      ],
      "name": "NFTMinted",
      "type": "event"
    },
    {
      "anonymous": false,
      "inputs": [
        {
          "indexed": true,
          "internalType": "uint256",
          "name": "itemId",
          "type": "uint256"
        },
        {
          "indexed": false,
          "internalType": "address",
          "name": "buyer",
          "type": "address"
        },
        {
          "indexed": false,
          "internalType": "uint256",
          "name": "price",
          "type": "uint256"
        }
      ],
      "name": "NFTSold",
      "type": "event"
    },
    {
      "anonymous": false,
      "inputs": [
        {
          "indexed": true,
          "internalType": "address",
          "name": "previousOwner",
          "type": "address"
        },
        {
          "indexed": true,
          "internalType": "address",
          "name": "newOwner",
          "type": "address"
        }
      ],
      "name": "OwnershipTransferred",
      "type": "event"
    },
    {
      "anonymous": false,
      "inputs": [
        {
          "indexed": true,
          "internalType": "address",
          "name": "from",
          "type": "address"
        },
        {
          "indexed": true,
          "internalType": "address",
          "name": "to",
          "type": "address"
        },
        {
          "indexed": true,
          "internalType": "uint256",
          "name": "tokenId",
          "type": "uint256"
        }
      ],
      "name": "Transfer",
      "type": "event"
    },
    {
      "inputs": [
        {
          "internalType": "address",
          "name": "to",
          "type": "address"
        },
        {
          "internalType": "uint256",
          "name": "tokenId",
          "type": "uint256"
        }
      ],
      "name": "approve",
      "outputs": [],
      "stateMutability": "nonpayable",
      "type": "function"
    },
    {
      "inputs": [
        {
          "internalType": "address",
          "name": "owner",
          "type": "address"
        }
      ],
      "name": "balanceOf",
      "outputs": [
        {
          "internalType": "uint256",
          "name": "",
          "type": "uint256"
        }
      ],
      "stateMutability": "view",
      "type": "function"
    },
    {
      "inputs": [
        {
          "internalType": "uint256",
          "name": "itemId",
          "type": "uint256"
        }
      ],
      "name": "buyNFT",
      "outputs": [],
      "stateMutability": "payable",
      "type": "function"
    },
    {
      "inputs": [
        {
          "internalType": "uint256",
          "name": "tokenId",
          "type": "uint256"
        }
      ],
      "name": "getApproved",
      "outputs": [
        {
          "internalType": "address",
          "name": "",
          "type": "address"
        }
      ],
      "stateMutability": "view",
      "type": "function"
    },
    {
      "inputs": [
        {
          "internalType": "address",
          "name": "owner",
          "type": "address"
        },
        {
          "internalType": "address",
          "name": "operator",
          "type": "address"
        }
      ],
      "name": "isApprovedForAll",
      "outputs": [
        {
          "internalType": "bool",
          "name": "",
          "type": "bool"
        }
      ],
      "stateMutability": "view",
      "type": "function"
    },
    {
      "inputs": [
        {
          "internalType": "uint256",
          "name": "",
          "type": "uint256"
        }
      ],
      "name": "items",
      "outputs": [
        {
          "internalType": "uint256",
          "name": "videoTokenId",
          "type": "uint256"
        },
        {
          "internalType": "uint256",
          "name": "extraTokenId",
          "type": "uint256"
        },
        {
          "internalType": "uint256",
          "name": "price",
          "type": "uint256"
        },
        {
          "internalType": "address",
          "name": "owner",
          "type": "address"
        }
      ],
      "stateMutability": "view",
      "type": "function"
    },
    {
      "inputs": [
        {
          "internalType": "string",
          "name": "videoTokenURI",
          "type": "string"
        },
        {
          "internalType": "string",
          "name": "extraTokenURI",
          "type": "string"
        },
        {
          "internalType": "uint256",
          "name": "price",
          "type": "uint256"
        }
      ],
      "name": "mintVideoNFT",
      "outputs": [
        {
          "internalType": "uint256",
          "name": "itemId",
          "type": "uint256"
        }
      ],
      "stateMutability": "nonpayable",
      "type": "function"
    },
    {
      "inputs": [],
      "name": "name",
      "outputs": [
        {
          "internalType": "string",
          "name": "",
          "type": "string"
        }
      ],
      "stateMutability": "view",
      "type": "function"
    },
    {
      "inputs": [],
      "name": "owner",
      "outputs": [
        {
          "internalType": "address",
          "name": "",
          "type": "address"
        }
      ],
      "stateMutability": "view",
      "type": "function"
    },
    {
      "inputs": [
        {
          "internalType": "uint256",
          "name": "tokenId",
          "type": "uint256"
        }
      ],
      "name": "ownerOf",
      "outputs": [
        {
          "internalType": "address",
          "name": "",
          "type": "address"
        }
      ],
      "stateMutability": "view",
      "type": "function"
    },
    {
      "inputs": [],
      "name": "renounceOwnership",
      "outputs": [],
      "stateMutability": "nonpayable",
      "type": "function"
    },
    {
      "inputs": [
        {
          "internalType": "address",
          "name": "from",
          "type": "address"
        },
        {
          "internalType": "address",
          "name": "to",
          "type": "address"
        },
        {
          "internalType": "uint256",
          "name": "tokenId",
          "type": "uint256"
        }
      ],
      "name": "safeTransferFrom",
      "outputs": [],
      "stateMutability": "nonpayable",
      "type": "function"
    },
    {
      "inputs": [
        {
          "internalType": "address",
          "name": "from",
          "type": "address"
        },
        {
          "internalType": "address",
          "name": "to",
          "type": "address"
        },
        {
          "internalType": "uint256",
          "name": "tokenId",
          "type": "uint256"
        },
        {
          "internalType": "bytes",
          "name": "data",
          "type": "bytes"
        }
      ],
      "name": "safeTransferFrom",
      "outputs": [],
      "stateMutability": "nonpayable",
      "type": "function"
    },
    {
      "inputs": [
        {
          "internalType": "address",
          "name": "operator",
          "type": "address"
        },
        {
          "internalType": "bool",
          "name": "approved",
          "type": "bool"
        }
      ],
      "name": "setApprovalForAll",
      "outputs": [],
      "stateMutability": "nonpayable",
      "type": "function"
    },
    {
      "inputs": [
        {
          "internalType": "bytes4",
          "name": "interfaceId",
          "type": "bytes4"
        }
      ],
      "name": "supportsInterface",
      "outputs": [
        {
          "internalType": "bool",
          "name": "",
          "type": "bool"
        }
      ],
      "stateMutability": "view",
      "type": "function"
    },
    {
      "inputs": [],
      "name": "symbol",
      "outputs": [
        {
          "internalType": "string",
          "name": "",
          "type": "string"
        }
      ],
      "stateMutability": "view",
      "type": "function"
    },
    {
      "inputs": [
        {
          "internalType": "uint256",
          "name": "tokenId",
          "type": "uint256"
        }
      ],
      "name": "tokenURI",
      "outputs": [
        {
          "internalType": "string",
          "name": "",
          "type": "string"
        }
      ],
      "stateMutability": "view",
      "type": "function"
    },
    {
      "inputs": [
        {
          "internalType": "address",
          "name": "from",
          "type": "address"
        },
        {
          "internalType": "address",
          "name": "to",
          "type": "address"
        },
        {
          "internalType": "uint256",
          "name": "tokenId",
          "type": "uint256"
        }
      ],
      "name": "transferFrom",
      "outputs": [],
      "stateMutability": "nonpayable",
      "type": "function"
    },
    {
      "inputs": [
        {
          "internalType": "address",
          "name": "newOwner",
          "type": "address"
        }
      ],
      "name": "transferOwnership",
      "outputs": [],
      "stateMutability": "nonpayable",
      "type": "function"
    }
  ],
  "bytecode": "0x60806040526001600855600160095534801561001a57600080fd5b50336040518060400160405280600881526020017f566964656f4e46540000000000000000000000000000000000000000000000008152506040518060400160405280600481526020017f564e46540000000000000000000000000000000000000000000000000000000081525081600090816100979190610447565b5080600190816100a79190610447565b505050600073ffffffffffffffffffffffffffffffffffffffff168173ffffffffffffffffffffffffffffffffffffffff160361011c5760006040517f1e4fbdf7000000000000000000000000000000000000000000000000000000008152600401610113919061055a565b60405180910390fd5b61012b8161013160201b60201c565b50610575565b6000600760009054906101000a900473ffffffffffffffffffffffffffffffffffffffff16905081600760006101000a81548173ffffffffffffffffffffffffffffffffffffffff021916908373ffffffffffffffffffffffffffffffffffffffff1602179055508173ffffffffffffffffffffffffffffffffffffffff168173ffffffffffffffffffffffffffffffffffffffff167f8be0079c531659141344cd1fd0a4f28419497f9722a3daafe3b4186f6b6457e060405160405180910390a35050565b600081519050919050565b7f4e487b7100000000000000000000000000000000000000000000000000000000600052604160045260246000fd5b7f4e487b7100000000000000000000000000000000000000000000000000000000600052602260045260246000fd5b6000600282049050600182168061027857607f821691505b60208210810361028b5761028a610231565b5b50919050565b60008190508160005260206000209050919050565b60006020601f8301049050919050565b600082821b905092915050565b6000600883026102f37fffffffffffffffffffffffffffffffffffffffffffffffffffffffffffffffff826102b6565b6102fd86836102b6565b95508019841693508086168417925050509392505050565b6000819050919050565b6000819050919050565b600061034461033f61033a84610315565b61031f565b610315565b9050919050565b6000819050919050565b61035e83610329565b61037261036a8261034b565b8484546102c3565b825550505050565b600090565b61038761037a565b610392818484610355565b505050565b5b818110156103b6576103ab60008261037f565b600181019050610398565b5050565b601f8211156103fb576103cc81610291565b6103d5846102a6565b810160208510156103e4578190505b6103f86103f0856102a6565b830182610397565b50505b505050565b600082821c905092915050565b600061041e60001984600802610400565b1980831691505092915050565b6000610437838361040d565b9150826002028217905092915050565b610450826101f7565b67ffffffffffffffff81111561046957610468610202565b5b6104738254610260565b61047e8282856103ba565b600060209050601f8311600181146104b1576000841561049f578287015190505b6104a9858261042b565b865550610511565b601f1984166104bf86610291565b60005b828110156104e7578489015182556001820191506020850194506020810190506104c2565b868310156105045784890151610500601f89168261040d565b8355505b6001600288020188555050505b505050505050565b600073ffffffffffffffffffffffffffffffffffffffff82169050919050565b600061054482610519565b9050919050565b61055481610539565b82525050565b600060208201905061056f600083018461054b565b92915050565b6130a8806105846000396000f3fe6080604052600436106101145760003560e01c8063715018a6116100a0578063b88d4fde11610064578063b88d4fde146103a2578063bfb231d2146103cb578063c87b56dd1461040b578063e985e9c514610448578063f2fde38b1461048557610114565b8063715018a6146102cf5780638da5cb5b146102e657806395d89b4114610311578063a22cb4651461033c578063acbbe19b1461036557610114565b806323b872dd116100e757806323b872dd146101e757806342842e0e1461021057806351ed8288146102395780636352211e1461025557806370a082311461029257610114565b806301ffc9a71461011957806306fdde0314610156578063081812fc14610181578063095ea7b3146101be575b600080fd5b34801561012557600080fd5b50610140600480360381019061013b91906121f3565b6104ae565b60405161014d919061223b565b60405180910390f35b34801561016257600080fd5b5061016b61050f565b60405161017891906122e6565b60405180910390f35b34801561018d57600080fd5b506101a860048036038101906101a3919061233e565b6105a1565b6040516101b591906123ac565b60405180910390f35b3480156101ca57600080fd5b506101e560048036038101906101e091906123f3565b6105bd565b005b3480156101f357600080fd5b5061020e60048036038101906102099190612433565b6105d3565b005b34801561021c57600080fd5b5061023760048036038101906102329190612433565b6106d5565b005b610253600480360381019061024e919061233e565b6106f5565b005b34801561026157600080fd5b5061027c6004803603810190610277919061233e565b6109db565b60405161028991906123ac565b60405180910390f35b34801561029e57600080fd5b506102b960048036038101906102b49190612486565b6109ed565b6040516102c691906124c2565b60405180910390f35b3480156102db57600080fd5b506102e4610aa7565b005b3480156102f257600080fd5b506102fb610abb565b60405161030891906123ac565b60405180910390f35b34801561031d57600080fd5b50610326610ae5565b60405161033391906122e6565b60405180910390f35b34801561034857600080fd5b50610363600480360381019061035e9190612509565b610b77565b005b34801561037157600080fd5b5061038c6004803603810190610387919061267e565b610b8d565b60405161039991906124c2565b60405180910390f35b3480156103ae57600080fd5b506103c960048036038101906103c491906127aa565b610d49565b005b3480156103d757600080fd5b506103f260048036038101906103ed919061233e565b610d6e565b604051610402949392919061282d565b60405180910390f35b34801561041757600080fd5b50610432600480360381019061042d919061233e565b610dbe565b60405161043f91906122e6565b60405180910390f35b34801561045457600080fd5b5061046f600480360381019061046a9190612872565b610ed1565b60405161047c919061223b565b60405180910390f35b34801561049157600080fd5b506104ac60048036038101906104a79190612486565b610f65565b005b6000634906490660e01b7bffffffffffffffffffffffffffffffffffffffffffffffffffffffff1916827bffffffffffffffffffffffffffffffffffffffffffffffffffffffff19161480610508575061050782610feb565b5b9050919050565b60606000805461051e906128e1565b80601f016020809104026020016040519081016040528092919081815260200182805461054a906128e1565b80156105975780601f1061056c57610100808354040283529160200191610597565b820191906000526020600020905b81548152906001019060200180831161057a57829003601f168201915b5050505050905090565b60006105ac826110cd565b506105b682611155565b9050919050565b6105cf82826105ca611192565b61119a565b5050565b600073ffffffffffffffffffffffffffffffffffffffff168273ffffffffffffffffffffffffffffffffffffffff16036106455760006040517f64a0ae9200000000000000000000000000000000000000000000000000000000815260040161063c91906123ac565b60405180910390fd5b60006106598383610654611192565b6111ac565b90508373ffffffffffffffffffffffffffffffffffffffff168173ffffffffffffffffffffffffffffffffffffffff16146106cf578382826040517f64283d7b0000000000000000000000000000000000000000000000000000000081526004016106c693929190612912565b60405180910390fd5b50505050565b6106f083838360405180602001604052806000815250610d49565b505050565b6000600a60008381526020019081526020016000209050600073ffffffffffffffffffffffffffffffffffffffff168160030160009054906101000a900473ffffffffffffffffffffffffffffffffffffffff1673ffffffffffffffffffffffffffffffffffffffff160361079f576040517f08c379a000000000000000000000000000000000000000000000000000000000815260040161079690612995565b60405180910390fd5b80600201543410156107e6576040517f08c379a00000000000000000000000000000000000000000000000000000000081526004016107dd90612a01565b60405180910390fd5b60008160030160009054906101000a900473ffffffffffffffffffffffffffffffffffffffff1690503373ffffffffffffffffffffffffffffffffffffffff168173ffffffffffffffffffffffffffffffffffffffff160361087d576040517f08c379a000000000000000000000000000000000000000000000000000000000815260040161087490612a6d565b60405180910390fd5b61088c813384600001546113c6565b60008260010154146108a8576108a7813384600101546113c6565b5b338260030160006101000a81548173ffffffffffffffffffffffffffffffffffffffff021916908373ffffffffffffffffffffffffffffffffffffffff160217905550827f6329e40c0365262ebbff5ca819385c2b9713dcaa050ed07866d72c441395699a338460020154604051610921929190612a8d565b60405180910390a260008173ffffffffffffffffffffffffffffffffffffffff163460405161094f90612ae7565b60006040518083038185875af1925050503d806000811461098c576040519150601f19603f3d011682016040523d82523d6000602084013e610991565b606091505b50509050806109d5576040517f08c379a00000000000000000000000000000000000000000000000000000000081526004016109cc90612b48565b60405180910390fd5b50505050565b60006109e6826110cd565b9050919050565b60008073ffffffffffffffffffffffffffffffffffffffff168273ffffffffffffffffffffffffffffffffffffffff1603610a605760006040517f89c62b64000000000000000000000000000000000000000000000000000000008152600401610a5791906123ac565b60405180910390fd5b600360008373ffffffffffffffffffffffffffffffffffffffff1673ffffffffffffffffffffffffffffffffffffffff168152602001908152602001600020549050919050565b610aaf611533565b610ab960006115ba565b565b6000600760009054906101000a900473ffffffffffffffffffffffffffffffffffffffff16905090565b606060018054610af4906128e1565b80601f0160208091040260200160405190810160405280929190818152602001828054610b20906128e1565b8015610b6d5780601f10610b4257610100808354040283529160200191610b6d565b820191906000526020600020905b815481529060010190602001808311610b5057829003601f168201915b5050505050905090565b610b89610b82611192565b8383611680565b5050565b6000808211610bd1576040517f08c379a0000000000000000000000000000000000000000000000000000000008152600401610bc890612bb4565b60405180910390fd5b60096000815480929190610be490612c03565b919050559050600060086000815480929190610bff90612c03565b919050559050610c0f33826117ef565b610c1981866118e8565b60008085511115610c525760086000815480929190610c3790612c03565b919050559050610c4733826117ef565b610c5181866118e8565b5b60405180608001604052808381526020018281526020018581526020013373ffffffffffffffffffffffffffffffffffffffff16815250600a600085815260200190815260200160002060008201518160000155602082015181600101556040820151816002015560608201518160030160006101000a81548173ffffffffffffffffffffffffffffffffffffffff021916908373ffffffffffffffffffffffffffffffffffffffff160217905550905050827fd87f5a46cb364a9408d162415b276e66acfc6d649629fbf49c6b467a80623677838387604051610d3893929190612c4b565b60405180910390a250509392505050565b610d548484846105d3565b610d68610d5f611192565b85858585611944565b50505050565b600a6020528060005260406000206000915090508060000154908060010154908060020154908060030160009054906101000a900473ffffffffffffffffffffffffffffffffffffffff16905084565b6060610dc9826110cd565b506000600660008481526020019081526020016000208054610dea906128e1565b80601f0160208091040260200160405190810160405280929190818152602001828054610e16906128e1565b8015610e635780601f10610e3857610100808354040283529160200191610e63565b820191906000526020600020905b815481529060010190602001808311610e4657829003601f168201915b505050505090506000610e74611af5565b90506000815103610e89578192505050610ecc565b600082511115610ebe578082604051602001610ea6929190612cbe565b60405160208183030381529060405292505050610ecc565b610ec784611b0c565b925050505b919050565b6000600560008473ffffffffffffffffffffffffffffffffffffffff1673ffffffffffffffffffffffffffffffffffffffff16815260200190815260200160002060008373ffffffffffffffffffffffffffffffffffffffff1673ffffffffffffffffffffffffffffffffffffffff16815260200190815260200160002060009054906101000a900460ff16905092915050565b610f6d611533565b600073ffffffffffffffffffffffffffffffffffffffff168173ffffffffffffffffffffffffffffffffffffffff1603610fdf5760006040517f1e4fbdf7000000000000000000000000000000000000000000000000000000008152600401610fd691906123ac565b60405180910390fd5b610fe8816115ba565b50565b60007f80ac58cd000000000000000000000000000000000000000000000000000000007bffffffffffffffffffffffffffffffffffffffffffffffffffffffff1916827bffffffffffffffffffffffffffffffffffffffffffffffffffffffff191614806110b657507f5b5e139f000000000000000000000000000000000000000000000000000000007bffffffffffffffffffffffffffffffffffffffffffffffffffffffff1916827bffffffffffffffffffffffffffffffffffffffffffffffffffffffff1916145b806110c657506110c582611b75565b5b9050919050565b6000806110d983611bdf565b9050600073ffffffffffffffffffffffffffffffffffffffff168173ffffffffffffffffffffffffffffffffffffffff160361114c57826040517f7e27328900000000000000000000000000000000000000000000000000000000815260040161114391906124c2565b60405180910390fd5b80915050919050565b60006004600083815260200190815260200160002060009054906101000a900473ffffffffffffffffffffffffffffffffffffffff169050919050565b600033905090565b6111a78383836001611c1c565b505050565b6000806111b884611bdf565b9050600073ffffffffffffffffffffffffffffffffffffffff168373ffffffffffffffffffffffffffffffffffffffff16146111fa576111f9818486611de1565b5b600073ffffffffffffffffffffffffffffffffffffffff168173ffffffffffffffffffffffffffffffffffffffff161461128b5761123c600085600080611c1c565b6001600360008373ffffffffffffffffffffffffffffffffffffffff1673ffffffffffffffffffffffffffffffffffffffff168152602001908152602001600020600082825403925050819055505b600073ffffffffffffffffffffffffffffffffffffffff168573ffffffffffffffffffffffffffffffffffffffff161461130e576001600360008773ffffffffffffffffffffffffffffffffffffffff1673ffffffffffffffffffffffffffffffffffffffff168152602001908152602001600020600082825401925050819055505b846002600086815260200190815260200160002060006101000a81548173ffffffffffffffffffffffffffffffffffffffff021916908373ffffffffffffffffffffffffffffffffffffffff160217905550838573ffffffffffffffffffffffffffffffffffffffff168273ffffffffffffffffffffffffffffffffffffffff167fddf252ad1be2c89b69c2b068fc378daa952ba7f163c4a11628f55a4df523b3ef60405160405180910390a4809150509392505050565b600073ffffffffffffffffffffffffffffffffffffffff168273ffffffffffffffffffffffffffffffffffffffff16036114385760006040517f64a0ae9200000000000000000000000000000000000000000000000000000000815260040161142f91906123ac565b60405180910390fd5b6000611446838360006111ac565b9050600073ffffffffffffffffffffffffffffffffffffffff168173ffffffffffffffffffffffffffffffffffffffff16036114b957816040517f7e2732890000000000000000000000000000000000000000000000000000000081526004016114b091906124c2565b60405180910390fd5b8373ffffffffffffffffffffffffffffffffffffffff168173ffffffffffffffffffffffffffffffffffffffff161461152d578382826040517f64283d7b00000000000000000000000000000000000000000000000000000000815260040161152493929190612912565b60405180910390fd5b50505050565b61153b611192565b73ffffffffffffffffffffffffffffffffffffffff16611559610abb565b73ffffffffffffffffffffffffffffffffffffffff16146115b85761157c611192565b6040517f118cdaa70000000000000000000000000000000000000000000000000000000081526004016115af91906123ac565b60405180910390fd5b565b6000600760009054906101000a900473ffffffffffffffffffffffffffffffffffffffff16905081600760006101000a81548173ffffffffffffffffffffffffffffffffffffffff021916908373ffffffffffffffffffffffffffffffffffffffff1602179055508173ffffffffffffffffffffffffffffffffffffffff168173ffffffffffffffffffffffffffffffffffffffff167f8be0079c531659141344cd1fd0a4f28419497f9722a3daafe3b4186f6b6457e060405160405180910390a35050565b600073ffffffffffffffffffffffffffffffffffffffff168273ffffffffffffffffffffffffffffffffffffffff16036116f157816040517f5b08ba180000000000000000000000000000000000000000000000000000000081526004016116e891906123ac565b60405180910390fd5b80600560008573ffffffffffffffffffffffffffffffffffffffff1673ffffffffffffffffffffffffffffffffffffffff16815260200190815260200160002060008473ffffffffffffffffffffffffffffffffffffffff1673ffffffffffffffffffffffffffffffffffffffff16815260200190815260200160002060006101000a81548160ff0219169083151502179055508173ffffffffffffffffffffffffffffffffffffffff168373ffffffffffffffffffffffffffffffffffffffff167f17307eab39ab6107e8899845ad3d59bd9653f200f220920489ca2b5937696c31836040516117e2919061223b565b60405180910390a3505050565b600073ffffffffffffffffffffffffffffffffffffffff168273ffffffffffffffffffffffffffffffffffffffff16036118615760006040517f64a0ae9200000000000000000000000000000000000000000000000000000000815260040161185891906123ac565b60405180910390fd5b600061186f838360006111ac565b9050600073ffffffffffffffffffffffffffffffffffffffff168173ffffffffffffffffffffffffffffffffffffffff16146118e35760006040517f73c6ac6e0000000000000000000000000000000000000000000000000000000081526004016118da91906123ac565b60405180910390fd5b505050565b806006600084815260200190815260200160002090816119089190612e8e565b507ff8e1a15aba9398e019f0b49df1a4fde98ee17ae345cb5f6b5e2c27f5033e8ce78260405161193891906124c2565b60405180910390a15050565b60008373ffffffffffffffffffffffffffffffffffffffff163b1115611aee578273ffffffffffffffffffffffffffffffffffffffff1663150b7a02868685856040518563ffffffff1660e01b81526004016119a39493929190612fb5565b6020604051808303816000875af19250505080156119df57506040513d601f19601f820116820180604052508101906119dc9190613016565b60015b611a63573d8060008114611a0f576040519150601f19603f3d011682016040523d82523d6000602084013e611a14565b606091505b506000815103611a5b57836040517f64a0ae92000000000000000000000000000000000000000000000000000000008152600401611a5291906123ac565b60405180910390fd5b805181602001fd5b63150b7a0260e01b7bffffffffffffffffffffffffffffffffffffffffffffffffffffffff1916817bffffffffffffffffffffffffffffffffffffffffffffffffffffffff191614611aec57836040517f64a0ae92000000000000000000000000000000000000000000000000000000008152600401611ae391906123ac565b60405180910390fd5b505b5050505050565b606060405180602001604052806000815250905090565b6060611b17826110cd565b506000611b22611af5565b90506000815111611b425760405180602001604052806000815250611b6d565b80611b4c84611ea5565b604051602001611b5d929190612cbe565b6040516020818303038152906040525b915050919050565b60007f01ffc9a7000000000000000000000000000000000000000000000000000000007bffffffffffffffffffffffffffffffffffffffffffffffffffffffff1916827bffffffffffffffffffffffffffffffffffffffffffffffffffffffff1916149050919050565b60006002600083815260200190815260200160002060009054906101000a900473ffffffffffffffffffffffffffffffffffffffff169050919050565b8080611c555750600073ffffffffffffffffffffffffffffffffffffffff168273ffffffffffffffffffffffffffffffffffffffff1614155b15611d89576000611c65846110cd565b9050600073ffffffffffffffffffffffffffffffffffffffff168373ffffffffffffffffffffffffffffffffffffffff1614158015611cd057508273ffffffffffffffffffffffffffffffffffffffff168173ffffffffffffffffffffffffffffffffffffffff1614155b8015611ce35750611ce18184610ed1565b155b15611d2557826040517fa9fbf51f000000000000000000000000000000000000000000000000000000008152600401611d1c91906123ac565b60405180910390fd5b8115611d8757838573ffffffffffffffffffffffffffffffffffffffff168273ffffffffffffffffffffffffffffffffffffffff167f8c5be1e5ebec7d5bd14f71427d1e84f3dd0314c0f7b2291e5b200ac8c7c3b92560405160405180910390a45b505b836004600085815260200190815260200160002060006101000a81548173ffffffffffffffffffffffffffffffffffffffff021916908373ffffffffffffffffffffffffffffffffffffffff16021790555050505050565b611dec838383611f73565b611ea057600073ffffffffffffffffffffffffffffffffffffffff168373ffffffffffffffffffffffffffffffffffffffff1603611e6157806040517f7e273289000000000000000000000000000000000000000000000000000000008152600401611e5891906124c2565b60405180910390fd5b81816040517f177e802f000000000000000000000000000000000000000000000000000000008152600401611e97929190612a8d565b60405180910390fd5b505050565b606060006001611eb484612034565b01905060008167ffffffffffffffff811115611ed357611ed2612553565b5b6040519080825280601f01601f191660200182016040528015611f055781602001600182028036833780820191505090505b509050600082602001820190505b600115611f68578080600190039150507f3031323334353637383961626364656600000000000000000000000000000000600a86061a8153600a8581611f5c57611f5b613043565b5b04945060008503611f13575b819350505050919050565b60008073ffffffffffffffffffffffffffffffffffffffff168373ffffffffffffffffffffffffffffffffffffffff161415801561202b57508273ffffffffffffffffffffffffffffffffffffffff168473ffffffffffffffffffffffffffffffffffffffff161480611fec5750611feb8484610ed1565b5b8061202a57508273ffffffffffffffffffffffffffffffffffffffff1661201283611155565b73ffffffffffffffffffffffffffffffffffffffff16145b5b90509392505050565b600080600090507a184f03e93ff9f4daa797ed6e38ed64bf6a1f0100000000000000008310612092577a184f03e93ff9f4daa797ed6e38ed64bf6a1f010000000000000000838161208857612087613043565b5b0492506040810190505b6d04ee2d6d415b85acef810000000083106120cf576d04ee2d6d415b85acef810000000083816120c5576120c4613043565b5b0492506020810190505b662386f26fc1000083106120fe57662386f26fc1000083816120f4576120f3613043565b5b0492506010810190505b6305f5e1008310612127576305f5e100838161211d5761211c613043565b5b0492506008810190505b612710831061214c57612710838161214257612141613043565b5b0492506004810190505b6064831061216f576064838161216557612164613043565b5b0492506002810190505b600a831061217e576001810190505b80915050919050565b6000604051905090565b600080fd5b600080fd5b60007fffffffff0000000000000000000000000000000000000000000000000000000082169050919050565b6121d08161219b565b81146121db57600080fd5b50565b6000813590506121ed816121c7565b92915050565b60006020828403121561220957612208612191565b5b6000612217848285016121de565b91505092915050565b60008115159050919050565b61223581612220565b82525050565b6000602082019050612250600083018461222c565b92915050565b600081519050919050565b600082825260208201905092915050565b60005b83811015612290578082015181840152602081019050612275565b60008484015250505050565b6000601f19601f8301169050919050565b60006122b882612256565b6122c28185612261565b93506122d2818560208601612272565b6122db8161229c565b840191505092915050565b6000602082019050818103600083015261230081846122ad565b905092915050565b6000819050919050565b61231b81612308565b811461232657600080fd5b50565b60008135905061233881612312565b92915050565b60006020828403121561235457612353612191565b5b600061236284828501612329565b91505092915050565b600073ffffffffffffffffffffffffffffffffffffffff82169050919050565b60006123968261236b565b9050919050565b6123a68161238b565b82525050565b60006020820190506123c1600083018461239d565b92915050565b6123d08161238b565b81146123db57600080fd5b50565b6000813590506123ed816123c7565b92915050565b6000806040838503121561240a57612409612191565b5b6000612418858286016123de565b925050602061242985828601612329565b9150509250929050565b60008060006060848603121561244c5761244b612191565b5b600061245a868287016123de565b935050602061246b868287016123de565b925050604061247c86828701612329565b9150509250925092565b60006020828403121561249c5761249b612191565b5b60006124aa848285016123de565b91505092915050565b6124bc81612308565b82525050565b60006020820190506124d760008301846124b3565b92915050565b6124e681612220565b81146124f157600080fd5b50565b600081359050612503816124dd565b92915050565b600080604083850312156125205761251f612191565b5b600061252e858286016123de565b925050602061253f858286016124f4565b9150509250929050565b600080fd5b600080fd5b7f4e487b7100000000000000000000000000000000000000000000000000000000600052604160045260246000fd5b61258b8261229c565b810181811067ffffffffffffffff821117156125aa576125a9612553565b5b80604052505050565b60006125bd612187565b90506125c98282612582565b919050565b600067ffffffffffffffff8211156125e9576125e8612553565b5b6125f28261229c565b9050602081019050919050565b82818337600083830152505050565b600061262161261c846125ce565b6125b3565b90508281526020810184848401111561263d5761263c61254e565b5b6126488482856125ff565b509392505050565b600082601f83011261266557612664612549565b5b813561267584826020860161260e565b91505092915050565b60008060006060848603121561269757612696612191565b5b600084013567ffffffffffffffff8111156126b5576126b4612196565b5b6126c186828701612650565b935050602084013567ffffffffffffffff8111156126e2576126e1612196565b5b6126ee86828701612650565b92505060406126ff86828701612329565b9150509250925092565b600067ffffffffffffffff82111561272457612723612553565b5b61272d8261229c565b9050602081019050919050565b600061274d61274884612709565b6125b3565b9050828152602081018484840111156127695761276861254e565b5b6127748482856125ff565b509392505050565b600082601f83011261279157612790612549565b5b81356127a184826020860161273a565b91505092915050565b600080600080608085870312156127c4576127c3612191565b5b60006127d2878288016123de565b94505060206127e3878288016123de565b93505060406127f487828801612329565b925050606085013567ffffffffffffffff81111561281557612814612196565b5b6128218782880161277c565b91505092959194509250565b600060808201905061284260008301876124b3565b61284f60208301866124b3565b61285c60408301856124b3565b612869606083018461239d565b95945050505050565b6000806040838503121561288957612888612191565b5b6000612897858286016123de565b92505060206128a8858286016123de565b9150509250929050565b7f4e487b7100000000000000000000000000000000000000000000000000000000600052602260045260246000fd5b600060028204905060018216806128f957607f821691505b60208210810361290c5761290b6128b2565b5b50919050565b6000606082019050612927600083018661239d565b61293460208301856124b3565b612941604083018461239d565b949350505050565b7f4974656d20646f6573206e6f7420657869737400000000000000000000000000600082015250565b600061297f601383612261565b915061298a82612949565b602082019050919050565b600060208201905081810360008301526129ae81612972565b9050919050565b7f496e73756666696369656e74204554482073656e740000000000000000000000600082015250565b60006129eb601583612261565b91506129f6826129b5565b602082019050919050565b60006020820190508181036000830152612a1a816129de565b9050919050565b7f43616e6e6f742062757920796f7572206f776e204e4654000000000000000000600082015250565b6000612a57601783612261565b9150612a6282612a21565b602082019050919050565b60006020820190508181036000830152612a8681612a4a565b9050919050565b6000604082019050612aa2600083018561239d565b612aaf60208301846124b3565b9392505050565b600081905092915050565b50565b6000612ad1600083612ab6565b9150612adc82612ac1565b600082019050919050565b6000612af282612ac4565b9150819050919050565b7f455448207472616e73666572206661696c656400000000000000000000000000600082015250565b6000612b32601383612261565b9150612b3d82612afc565b602082019050919050565b60006020820190508181036000830152612b6181612b25565b9050919050565b7f5072696365206d7573742062652067726561746572207468616e203000000000600082015250565b6000612b9e601c83612261565b9150612ba982612b68565b602082019050919050565b60006020820190508181036000830152612bcd81612b91565b9050919050565b7f4e487b7100000000000000000000000000000000000000000000000000000000600052601160045260246000fd5b6000612c0e82612308565b91507fffffffffffffffffffffffffffffffffffffffffffffffffffffffffffffffff8203612c4057612c3f612bd4565b5b600182019050919050565b6000606082019050612c6060008301866124b3565b612c6d60208301856124b3565b612c7a60408301846124b3565b949350505050565b600081905092915050565b6000612c9882612256565b612ca28185612c82565b9350612cb2818560208601612272565b80840191505092915050565b6000612cca8285612c8d565b9150612cd68284612c8d565b91508190509392505050565b60008190508160005260206000209050919050565b60006020601f8301049050919050565b600082821b905092915050565b600060088302612d447fffffffffffffffffffffffffffffffffffffffffffffffffffffffffffffffff82612d07565b612d4e8683612d07565b95508019841693508086168417925050509392505050565b6000819050919050565b6000612d8b612d86612d8184612308565b612d66565b612308565b9050919050565b6000819050919050565b612da583612d70565b612db9612db182612d92565b848454612d14565b825550505050565b600090565b612dce612dc1565b612dd9818484612d9c565b505050565b5b81811015612dfd57612df2600082612dc6565b600181019050612ddf565b5050565b601f821115612e4257612e1381612ce2565b612e1c84612cf7565b81016020851015612e2b578190505b612e3f612e3785612cf7565b830182612dde565b50505b505050565b600082821c905092915050565b6000612e6560001984600802612e47565b1980831691505092915050565b6000612e7e8383612e54565b9150826002028217905092915050565b612e9782612256565b67ffffffffffffffff811115612eb057612eaf612553565b5b612eba82546128e1565b612ec5828285612e01565b600060209050601f831160018114612ef85760008415612ee6578287015190505b612ef08582612e72565b865550612f58565b601f198416612f0686612ce2565b60005b82811015612f2e57848901518255600182019150602085019450602081019050612f09565b86831015612f4b5784890151612f47601f891682612e54565b8355505b6001600288020188555050505b505050505050565b600081519050919050565b600082825260208201905092915050565b6000612f8782612f60565b612f918185612f6b565b9350612fa1818560208601612272565b612faa8161229c565b840191505092915050565b6000608082019050612fca600083018761239d565b612fd7602083018661239d565b612fe460408301856124b3565b8181036060830152612ff68184612f7c565b905095945050505050565b600081519050613010816121c7565b92915050565b60006020828403121561302c5761302b612191565b5b600061303a84828501613001565b91505092915050565b7f4e487b7100000000000000000000000000000000000000000000000000000000600052601260045260246000fdfea2646970667358221220a8ba47c36e71ad3967eb8fdfb127787c5ca7afad2a5d62ad3c81e9d0c0f07f4b64736f6c634300081c0033",
  "linkReferences": {},
  "deployedLinkReferences": {}
}