{
  "_format": "hh-sol-artifact-1",
  "contractName": "VideoNFTMarketplace",
  "sourceName": "contracts/VideoNFTMarketplace.sol",
  "abi": [
    {
      "inputs": [],
      "stateMutability": "nonpayable",
      "type": "constructor"
    },
    {
      "inputs": [
        {
          "internalType": "address",
          "name": "sender",
          "type": "address"
        },
        {
          "internalType": "uint256",
          "name": "tokenId",
          "type": "uint256"
        },
        {
          "internalType": "address",
          "name": "owner",
          "type": "address"
        }
      ],
      "name": "ERC721IncorrectOwner",
      "type": "error"
    },
    {
      "inputs": [
        {
          "internalType": "address",
          "name": "operator",
          "type": "address"
        },
        {
          "internalType": "uint256",
          "name": "tokenId",
          "type": "uint256"
        }
      ],
      "name": "ERC721InsufficientApproval",
      "type": "error"
    },
    {
      "inputs": [
        {
          "internalType": "address",
          "name": "approver",
          "type": "address"
        }
      ],
      "name": "ERC721InvalidApprover",
      "type": "error"
    },
    {
      "inputs": [
        {
          "internalType": "address",
          "name": "operator",
          "type": "address"
        }
      ],
      "name": "ERC721InvalidOperator",
      "type": "error"
    },
    {
      "inputs": [
        {
          "internalType": "address",
          "name": "owner",
          "type": "address"
        }
      ],
      "name": "ERC721InvalidOwner",
      "type": "error"
    },
    {
      "inputs": [
        {
          "internalType": "address",
          "name": "receiver",
          "type": "address"
        }
      ],
      "name": "ERC721InvalidReceiver",
      "type": "error"
    },
    {
      "inputs": [
        {
          "internalType": "address",
          "name": "sender",
          "type": "address"
        }
      ],
      "name": "ERC721InvalidSender",
      "type": "error"
    },
    {
      "inputs": [
        {
          "internalType": "uint256",
          "name": "tokenId",
          "type": "uint256"
        }
      ],
      "name": "ERC721NonexistentToken",
      "type": "error"
    },
    {
      "inputs": [
        {
          "internalType": "address",
          "name": "owner",
          "type": "address"
        }
      ],
      "name": "OwnableInvalidOwner",
      "type": "error"
    },
    {
      "inputs": [
        {
          "internalType": "address",
          "name": "account",
          "type": "address"
        }
      ],
      "name": "OwnableUnauthorizedAccount",
      "type": "error"
    },
    {
      "anonymous": false,
      "inputs": [
        {
          "indexed": true,
          "internalType": "address",
          "name": "owner",
          "type": "address"
        },
        {
          "indexed": true,
          "internalType": "address",
          "name": "approved",
          "type": "address"
        },
        {
          "indexed": true,
          "internalType": "uint256",
          "name": "tokenId",
          "type": "uint256"
        }
      ],
      "name": "Approval",
      "type": "event"
    },
    {
      "anonymous": false,
      "inputs": [
        {
          "indexed": true,
          "internalType": "address",
          "name": "owner",
          "type": "address"
        },
        {
          "indexed": true,
          "internalType": "address",
          "name": "operator",
          "type": "address"
        },
        {
          "indexed": false,
          "internalType": "bool",
          "name": "approved",
          "type": "bool"
        }
      ],
      "name": "ApprovalForAll",
      "type": "event"
    },
    {
      "anonymous": false,
      "inputs": [
        {
          "indexed": false,
          "internalType": "uint256",
          "name": "_fromTokenId",
          "type": "uint256"
        },
        {
          "indexed": false,
          "internalType": "uint256",
          "name": "_toTokenId",
          "type": "uint256"
        }
      ],
      "name": "BatchMetadataUpdate",
      "type": "event"
    },
    {
      "anonymous": false,
      "inputs": [
        {
          "indexed": false,
          "internalType": "uint256",
          "name": "_tokenId",
          "type": "uint256"
        }
      ],
      "name": "MetadataUpdate",
      "type": "event"
    },
    {
      "anonymous": false,
      "inputs": [
        {
          "indexed": true,
          "internalType": "uint256",
          "name": "itemId",
          "type": "uint256"
        },
        {
          "indexed": false,
          "internalType": "uint256",
          "name": "videoTokenId",
          "type": "uint256"
        },
        {
          "indexed": false,
          "internalType": "uint256",
          "name": "extraTokenId",
          "type": "uint256"
        },
        {
          "indexed": false,
          "internalType": "uint256",
          "name": "price",
          "type": "uint256"
        }
      ],
      "name": "NFTMinted",
      "type": "event"
    },
    {
      "anonymous": false,
      "inputs": [
        {
          "indexed": true,
          "internalType": "uint256",
          "name": "itemId",
          "type": "uint256"
        },
        {
          "indexed": false,
          "internalType": "address",
          "name": "buyer",
          "type": "address"
        },
        {
          "indexed": false,
          "internalType": "uint256",
          "name": "price",
          "type": "uint256"
        }
      ],
      "name": "NFTSold",
      "type": "event"
    },
    {
      "anonymous": false,
      "inputs": [
        {
          "indexed": true,
          "internalType": "address",
          "name": "previousOwner",
          "type": "address"
        },
        {
          "indexed": true,
          "internalType": "address",
          "name": "newOwner",
          "type": "address"
        }
      ],
      "name": "OwnershipTransferred",
      "type": "event"
    },
    {
      "anonymous": false,
      "inputs": [
        {
          "indexed": true,
          "internalType": "address",
          "name": "from",
          "type": "address"
        },
        {
          "indexed": true,
          "internalType": "address",
          "name": "to",
          "type": "address"
        },
        {
          "indexed": true,
          "internalType": "uint256",
          "name": "tokenId",
          "type": "uint256"
        }
      ],
      "name": "Transfer",
      "type": "event"
    },
    {
      "inputs": [
        {
          "internalType": "address",
          "name": "to",
          "type": "address"
        },
        {
          "internalType": "uint256",
          "name": "tokenId",
          "type": "uint256"
        }
      ],
      "name": "approve",
      "outputs": [],
      "stateMutability": "nonpayable",
      "type": "function"
    },
    {
      "inputs": [
        {
          "internalType": "address",
          "name": "owner",
          "type": "address"
        }
      ],
      "name": "balanceOf",
      "outputs": [
        {
          "internalType": "uint256",
          "name": "",
          "type": "uint256"
        }
      ],
      "stateMutability": "view",
      "type": "function"
    },
    {
      "inputs": [
        {
          "internalType": "uint256",
          "name": "itemId",
          "type": "uint256"
        }
      ],
      "name": "buyNFT",
      "outputs": [],
      "stateMutability": "payable",
      "type": "function"
    },
    {
      "inputs": [],
      "name": "getAllTokenIds",
      "outputs": [
        {
          "internalType": "uint256[]",
          "name": "",
          "type": "uint256[]"
        }
      ],
      "stateMutability": "view",
      "type": "function"
    },
    {
      "inputs": [
        {
          "internalType": "uint256",
          "name": "tokenId",
          "type": "uint256"
        }
      ],
      "name": "getApproved",
      "outputs": [
        {
          "internalType": "address",
          "name": "",
          "type": "address"
        }
      ],
      "stateMutability": "view",
      "type": "function"
    },
    {
      "inputs": [
        {
          "internalType": "address",
          "name": "owner",
          "type": "address"
        },
        {
          "internalType": "address",
          "name": "operator",
          "type": "address"
        }
      ],
      "name": "isApprovedForAll",
      "outputs": [
        {
          "internalType": "bool",
          "name": "",
          "type": "bool"
        }
      ],
      "stateMutability": "view",
      "type": "function"
    },
    {
      "inputs": [
        {
          "internalType": "uint256",
          "name": "",
          "type": "uint256"
        }
      ],
      "name": "items",
      "outputs": [
        {
          "internalType": "uint256",
          "name": "videoTokenId",
          "type": "uint256"
        },
        {
          "internalType": "uint256",
          "name": "extraTokenId",
          "type": "uint256"
        },
        {
          "internalType": "uint256",
          "name": "price",
          "type": "uint256"
        },
        {
          "internalType": "address",
          "name": "owner",
          "type": "address"
        }
      ],
      "stateMutability": "view",
      "type": "function"
    },
    {
      "inputs": [
        {
          "internalType": "string",
          "name": "videoTokenURI",
          "type": "string"
        },
        {
          "internalType": "string",
          "name": "extraTokenURI",
          "type": "string"
        },
        {
          "internalType": "uint256",
          "name": "price",
          "type": "uint256"
        }
      ],
      "name": "mintVideoNFT",
      "outputs": [
        {
          "internalType": "uint256",
          "name": "itemId",
          "type": "uint256"
        }
      ],
      "stateMutability": "nonpayable",
      "type": "function"
    },
    {
      "inputs": [],
      "name": "name",
      "outputs": [
        {
          "internalType": "string",
          "name": "",
          "type": "string"
        }
      ],
      "stateMutability": "view",
      "type": "function"
    },
    {
      "inputs": [],
      "name": "owner",
      "outputs": [
        {
          "internalType": "address",
          "name": "",
          "type": "address"
        }
      ],
      "stateMutability": "view",
      "type": "function"
    },
    {
      "inputs": [
        {
          "internalType": "uint256",
          "name": "tokenId",
          "type": "uint256"
        }
      ],
      "name": "ownerOf",
      "outputs": [
        {
          "internalType": "address",
          "name": "",
          "type": "address"
        }
      ],
      "stateMutability": "view",
      "type": "function"
    },
    {
      "inputs": [],
      "name": "renounceOwnership",
      "outputs": [],
      "stateMutability": "nonpayable",
      "type": "function"
    },
    {
      "inputs": [
        {
          "internalType": "address",
          "name": "from",
          "type": "address"
        },
        {
          "internalType": "address",
          "name": "to",
          "type": "address"
        },
        {
          "internalType": "uint256",
          "name": "tokenId",
          "type": "uint256"
        }
      ],
      "name": "safeTransferFrom",
      "outputs": [],
      "stateMutability": "nonpayable",
      "type": "function"
    },
    {
      "inputs": [
        {
          "internalType": "address",
          "name": "from",
          "type": "address"
        },
        {
          "internalType": "address",
          "name": "to",
          "type": "address"
        },
        {
          "internalType": "uint256",
          "name": "tokenId",
          "type": "uint256"
        },
        {
          "internalType": "bytes",
          "name": "data",
          "type": "bytes"
        }
      ],
      "name": "safeTransferFrom",
      "outputs": [],
      "stateMutability": "nonpayable",
      "type": "function"
    },
    {
      "inputs": [
        {
          "internalType": "address",
          "name": "operator",
          "type": "address"
        },
        {
          "internalType": "bool",
          "name": "approved",
          "type": "bool"
        }
      ],
      "name": "setApprovalForAll",
      "outputs": [],
      "stateMutability": "nonpayable",
      "type": "function"
    },
    {
      "inputs": [
        {
          "internalType": "bytes4",
          "name": "interfaceId",
          "type": "bytes4"
        }
      ],
      "name": "supportsInterface",
      "outputs": [
        {
          "internalType": "bool",
          "name": "",
          "type": "bool"
        }
      ],
      "stateMutability": "view",
      "type": "function"
    },
    {
      "inputs": [],
      "name": "symbol",
      "outputs": [
        {
          "internalType": "string",
          "name": "",
          "type": "string"
        }
      ],
      "stateMutability": "view",
      "type": "function"
    },
    {
      "inputs": [
        {
          "internalType": "uint256",
          "name": "tokenId",
          "type": "uint256"
        }
      ],
      "name": "tokenURI",
      "outputs": [
        {
          "internalType": "string",
          "name": "",
          "type": "string"
        }
      ],
      "stateMutability": "view",
      "type": "function"
    },
    {
      "inputs": [
        {
          "internalType": "address",
          "name": "from",
          "type": "address"
        },
        {
          "internalType": "address",
          "name": "to",
          "type": "address"
        },
        {
          "internalType": "uint256",
          "name": "tokenId",
          "type": "uint256"
        }
      ],
      "name": "transferFrom",
      "outputs": [],
      "stateMutability": "nonpayable",
      "type": "function"
    },
    {
      "inputs": [
        {
          "internalType": "address",
          "name": "newOwner",
          "type": "address"
        }
      ],
      "name": "transferOwnership",
      "outputs": [],
      "stateMutability": "nonpayable",
      "type": "function"
    }
  ],
  "bytecode": "0x60806040526001600855600160095534801561001a57600080fd5b50336040518060400160405280600881526020017f566964656f4e46540000000000000000000000000000000000000000000000008152506040518060400160405280600481526020017f564e46540000000000000000000000000000000000000000000000000000000081525081600090816100979190610447565b5080600190816100a79190610447565b505050600073ffffffffffffffffffffffffffffffffffffffff168173ffffffffffffffffffffffffffffffffffffffff160361011c5760006040517f1e4fbdf7000000000000000000000000000000000000000000000000000000008152600401610113919061055a565b60405180910390fd5b61012b8161013160201b60201c565b50610575565b6000600760009054906101000a900473ffffffffffffffffffffffffffffffffffffffff16905081600760006101000a81548173ffffffffffffffffffffffffffffffffffffffff021916908373ffffffffffffffffffffffffffffffffffffffff1602179055508173ffffffffffffffffffffffffffffffffffffffff168173ffffffffffffffffffffffffffffffffffffffff167f8be0079c531659141344cd1fd0a4f28419497f9722a3daafe3b4186f6b6457e060405160405180910390a35050565b600081519050919050565b7f4e487b7100000000000000000000000000000000000000000000000000000000600052604160045260246000fd5b7f4e487b7100000000000000000000000000000000000000000000000000000000600052602260045260246000fd5b6000600282049050600182168061027857607f821691505b60208210810361028b5761028a610231565b5b50919050565b60008190508160005260206000209050919050565b60006020601f8301049050919050565b600082821b905092915050565b6000600883026102f37fffffffffffffffffffffffffffffffffffffffffffffffffffffffffffffffff826102b6565b6102fd86836102b6565b95508019841693508086168417925050509392505050565b6000819050919050565b6000819050919050565b600061034461033f61033a84610315565b61031f565b610315565b9050919050565b6000819050919050565b61035e83610329565b61037261036a8261034b565b8484546102c3565b825550505050565b600090565b61038761037a565b610392818484610355565b505050565b5b818110156103b6576103ab60008261037f565b600181019050610398565b5050565b601f8211156103fb576103cc81610291565b6103d5846102a6565b810160208510156103e4578190505b6103f86103f0856102a6565b830182610397565b50505b505050565b600082821c905092915050565b600061041e60001984600802610400565b1980831691505092915050565b6000610437838361040d565b9150826002028217905092915050565b610450826101f7565b67ffffffffffffffff81111561046957610468610202565b5b6104738254610260565b61047e8282856103ba565b600060209050601f8311600181146104b1576000841561049f578287015190505b6104a9858261042b565b865550610511565b601f1984166104bf86610291565b60005b828110156104e7578489015182556001820191506020850194506020810190506104c2565b868310156105045784890151610500601f89168261040d565b8355505b6001600288020188555050505b505050505050565b600073ffffffffffffffffffffffffffffffffffffffff82169050919050565b600061054482610519565b9050919050565b61055481610539565b82525050565b600060208201905061056f600083018461054b565b92915050565b613268806105846000396000f3fe60806040526004361061011f5760003560e01c80638da5cb5b116100a0578063bdbed72211610064578063bdbed722146103d6578063bfb231d214610401578063c87b56dd14610441578063e985e9c51461047e578063f2fde38b146104bb5761011f565b80638da5cb5b146102f157806395d89b411461031c578063a22cb46514610347578063acbbe19b14610370578063b88d4fde146103ad5761011f565b806342842e0e116100e757806342842e0e1461021b57806351ed8288146102445780636352211e1461026057806370a082311461029d578063715018a6146102da5761011f565b806301ffc9a71461012457806306fdde0314610161578063081812fc1461018c578063095ea7b3146101c957806323b872dd146101f2575b600080fd5b34801561013057600080fd5b5061014b600480360381019061014691906122d3565b6104e4565b604051610158919061231b565b60405180910390f35b34801561016d57600080fd5b50610176610545565b60405161018391906123c6565b60405180910390f35b34801561019857600080fd5b506101b360048036038101906101ae919061241e565b6105d7565b6040516101c0919061248c565b60405180910390f35b3480156101d557600080fd5b506101f060048036038101906101eb91906124d3565b6105f3565b005b3480156101fe57600080fd5b5061021960048036038101906102149190612513565b610609565b005b34801561022757600080fd5b50610242600480360381019061023d9190612513565b61070b565b005b61025e6004803603810190610259919061241e565b61072b565b005b34801561026c57600080fd5b506102876004803603810190610282919061241e565b610a11565b604051610294919061248c565b60405180910390f35b3480156102a957600080fd5b506102c460048036038101906102bf9190612566565b610a23565b6040516102d191906125a2565b60405180910390f35b3480156102e657600080fd5b506102ef610add565b005b3480156102fd57600080fd5b50610306610af1565b604051610313919061248c565b60405180910390f35b34801561032857600080fd5b50610331610b1b565b60405161033e91906123c6565b60405180910390f35b34801561035357600080fd5b5061036e600480360381019061036991906125e9565b610bad565b005b34801561037c57600080fd5b506103976004803603810190610392919061275e565b610bc3565b6040516103a491906125a2565b60405180910390f35b3480156103b957600080fd5b506103d460048036038101906103cf919061288a565b610dd1565b005b3480156103e257600080fd5b506103eb610df6565b6040516103f891906129cb565b60405180910390f35b34801561040d57600080fd5b506104286004803603810190610423919061241e565b610e4e565b60405161043894939291906129ed565b60405180910390f35b34801561044d57600080fd5b506104686004803603810190610463919061241e565b610e9e565b60405161047591906123c6565b60405180910390f35b34801561048a57600080fd5b506104a560048036038101906104a09190612a32565b610fb1565b6040516104b2919061231b565b60405180910390f35b3480156104c757600080fd5b506104e260048036038101906104dd9190612566565b611045565b005b6000634906490660e01b7bffffffffffffffffffffffffffffffffffffffffffffffffffffffff1916827bffffffffffffffffffffffffffffffffffffffffffffffffffffffff1916148061053e575061053d826110cb565b5b9050919050565b60606000805461055490612aa1565b80601f016020809104026020016040519081016040528092919081815260200182805461058090612aa1565b80156105cd5780601f106105a2576101008083540402835291602001916105cd565b820191906000526020600020905b8154815290600101906020018083116105b057829003601f168201915b5050505050905090565b60006105e2826111ad565b506105ec82611235565b9050919050565b6106058282610600611272565b61127a565b5050565b600073ffffffffffffffffffffffffffffffffffffffff168273ffffffffffffffffffffffffffffffffffffffff160361067b5760006040517f64a0ae92000000000000000000000000000000000000000000000000000000008152600401610672919061248c565b60405180910390fd5b600061068f838361068a611272565b61128c565b90508373ffffffffffffffffffffffffffffffffffffffff168173ffffffffffffffffffffffffffffffffffffffff1614610705578382826040517f64283d7b0000000000000000000000000000000000000000000000000000000081526004016106fc93929190612ad2565b60405180910390fd5b50505050565b61072683838360405180602001604052806000815250610dd1565b505050565b6000600b60008381526020019081526020016000209050600073ffffffffffffffffffffffffffffffffffffffff168160030160009054906101000a900473ffffffffffffffffffffffffffffffffffffffff1673ffffffffffffffffffffffffffffffffffffffff16036107d5576040517f08c379a00000000000000000000000000000000000000000000000000000000081526004016107cc90612b55565b60405180910390fd5b806002015434101561081c576040517f08c379a000000000000000000000000000000000000000000000000000000000815260040161081390612bc1565b60405180910390fd5b60008160030160009054906101000a900473ffffffffffffffffffffffffffffffffffffffff1690503373ffffffffffffffffffffffffffffffffffffffff168173ffffffffffffffffffffffffffffffffffffffff16036108b3576040517f08c379a00000000000000000000000000000000000000000000000000000000081526004016108aa90612c2d565b60405180910390fd5b6108c2813384600001546114a6565b60008260010154146108de576108dd813384600101546114a6565b5b338260030160006101000a81548173ffffffffffffffffffffffffffffffffffffffff021916908373ffffffffffffffffffffffffffffffffffffffff160217905550827f6329e40c0365262ebbff5ca819385c2b9713dcaa050ed07866d72c441395699a338460020154604051610957929190612c4d565b60405180910390a260008173ffffffffffffffffffffffffffffffffffffffff163460405161098590612ca7565b60006040518083038185875af1925050503d80600081146109c2576040519150601f19603f3d011682016040523d82523d6000602084013e6109c7565b606091505b5050905080610a0b576040517f08c379a0000000000000000000000000000000000000000000000000000000008152600401610a0290612d08565b60405180910390fd5b50505050565b6000610a1c826111ad565b9050919050565b60008073ffffffffffffffffffffffffffffffffffffffff168273ffffffffffffffffffffffffffffffffffffffff1603610a965760006040517f89c62b64000000000000000000000000000000000000000000000000000000008152600401610a8d919061248c565b60405180910390fd5b600360008373ffffffffffffffffffffffffffffffffffffffff1673ffffffffffffffffffffffffffffffffffffffff168152602001908152602001600020549050919050565b610ae5611613565b610aef600061169a565b565b6000600760009054906101000a900473ffffffffffffffffffffffffffffffffffffffff16905090565b606060018054610b2a90612aa1565b80601f0160208091040260200160405190810160405280929190818152602001828054610b5690612aa1565b8015610ba35780601f10610b7857610100808354040283529160200191610ba3565b820191906000526020600020905b815481529060010190602001808311610b8657829003601f168201915b5050505050905090565b610bbf610bb8611272565b8383611760565b5050565b6000808211610c07576040517f08c379a0000000000000000000000000000000000000000000000000000000008152600401610bfe90612d74565b60405180910390fd5b60096000815480929190610c1a90612dc3565b919050559050600060086000815480929190610c3590612dc3565b919050559050610c4533826118cf565b610c4f81866119c8565b600a81908060018154018082558091505060019003906000526020600020016000909190919091505560008085511115610cda5760086000815480929190610c9690612dc3565b919050559050610ca633826118cf565b610cb081866119c8565b600a8190806001815401808255809150506001900390600052602060002001600090919091909150555b60405180608001604052808381526020018281526020018581526020013373ffffffffffffffffffffffffffffffffffffffff16815250600b600085815260200190815260200160002060008201518160000155602082015181600101556040820151816002015560608201518160030160006101000a81548173ffffffffffffffffffffffffffffffffffffffff021916908373ffffffffffffffffffffffffffffffffffffffff160217905550905050827fd87f5a46cb364a9408d162415b276e66acfc6d649629fbf49c6b467a80623677838387604051610dc093929190612e0b565b60405180910390a250509392505050565b610ddc848484610609565b610df0610de7611272565b85858585611a24565b50505050565b6060600a805480602002602001604051908101604052809291908181526020018280548015610e4457602002820191906000526020600020905b815481526020019060010190808311610e30575b5050505050905090565b600b6020528060005260406000206000915090508060000154908060010154908060020154908060030160009054906101000a900473ffffffffffffffffffffffffffffffffffffffff16905084565b6060610ea9826111ad565b506000600660008481526020019081526020016000208054610eca90612aa1565b80601f0160208091040260200160405190810160405280929190818152602001828054610ef690612aa1565b8015610f435780601f10610f1857610100808354040283529160200191610f43565b820191906000526020600020905b815481529060010190602001808311610f2657829003601f168201915b505050505090506000610f54611bd5565b90506000815103610f69578192505050610fac565b600082511115610f9e578082604051602001610f86929190612e7e565b60405160208183030381529060405292505050610fac565b610fa784611bec565b925050505b919050565b6000600560008473ffffffffffffffffffffffffffffffffffffffff1673ffffffffffffffffffffffffffffffffffffffff16815260200190815260200160002060008373ffffffffffffffffffffffffffffffffffffffff1673ffffffffffffffffffffffffffffffffffffffff16815260200190815260200160002060009054906101000a900460ff16905092915050565b61104d611613565b600073ffffffffffffffffffffffffffffffffffffffff168173ffffffffffffffffffffffffffffffffffffffff16036110bf5760006040517f1e4fbdf70000000000000000000000000000000000000000000000000000000081526004016110b6919061248c565b60405180910390fd5b6110c88161169a565b50565b60007f80ac58cd000000000000000000000000000000000000000000000000000000007bffffffffffffffffffffffffffffffffffffffffffffffffffffffff1916827bffffffffffffffffffffffffffffffffffffffffffffffffffffffff1916148061119657507f5b5e139f000000000000000000000000000000000000000000000000000000007bffffffffffffffffffffffffffffffffffffffffffffffffffffffff1916827bffffffffffffffffffffffffffffffffffffffffffffffffffffffff1916145b806111a657506111a582611c55565b5b9050919050565b6000806111b983611cbf565b9050600073ffffffffffffffffffffffffffffffffffffffff168173ffffffffffffffffffffffffffffffffffffffff160361122c57826040517f7e27328900000000000000000000000000000000000000000000000000000000815260040161122391906125a2565b60405180910390fd5b80915050919050565b60006004600083815260200190815260200160002060009054906101000a900473ffffffffffffffffffffffffffffffffffffffff169050919050565b600033905090565b6112878383836001611cfc565b505050565b60008061129884611cbf565b9050600073ffffffffffffffffffffffffffffffffffffffff168373ffffffffffffffffffffffffffffffffffffffff16146112da576112d9818486611ec1565b5b600073ffffffffffffffffffffffffffffffffffffffff168173ffffffffffffffffffffffffffffffffffffffff161461136b5761131c600085600080611cfc565b6001600360008373ffffffffffffffffffffffffffffffffffffffff1673ffffffffffffffffffffffffffffffffffffffff168152602001908152602001600020600082825403925050819055505b600073ffffffffffffffffffffffffffffffffffffffff168573ffffffffffffffffffffffffffffffffffffffff16146113ee576001600360008773ffffffffffffffffffffffffffffffffffffffff1673ffffffffffffffffffffffffffffffffffffffff168152602001908152602001600020600082825401925050819055505b846002600086815260200190815260200160002060006101000a81548173ffffffffffffffffffffffffffffffffffffffff021916908373ffffffffffffffffffffffffffffffffffffffff160217905550838573ffffffffffffffffffffffffffffffffffffffff168273ffffffffffffffffffffffffffffffffffffffff167fddf252ad1be2c89b69c2b068fc378daa952ba7f163c4a11628f55a4df523b3ef60405160405180910390a4809150509392505050565b600073ffffffffffffffffffffffffffffffffffffffff168273ffffffffffffffffffffffffffffffffffffffff16036115185760006040517f64a0ae9200000000000000000000000000000000000000000000000000000000815260040161150f919061248c565b60405180910390fd5b60006115268383600061128c565b9050600073ffffffffffffffffffffffffffffffffffffffff168173ffffffffffffffffffffffffffffffffffffffff160361159957816040517f7e27328900000000000000000000000000000000000000000000000000000000815260040161159091906125a2565b60405180910390fd5b8373ffffffffffffffffffffffffffffffffffffffff168173ffffffffffffffffffffffffffffffffffffffff161461160d578382826040517f64283d7b00000000000000000000000000000000000000000000000000000000815260040161160493929190612ad2565b60405180910390fd5b50505050565b61161b611272565b73ffffffffffffffffffffffffffffffffffffffff16611639610af1565b73ffffffffffffffffffffffffffffffffffffffff16146116985761165c611272565b6040517f118cdaa700000000000000000000000000000000000000000000000000000000815260040161168f919061248c565b60405180910390fd5b565b6000600760009054906101000a900473ffffffffffffffffffffffffffffffffffffffff16905081600760006101000a81548173ffffffffffffffffffffffffffffffffffffffff021916908373ffffffffffffffffffffffffffffffffffffffff1602179055508173ffffffffffffffffffffffffffffffffffffffff168173ffffffffffffffffffffffffffffffffffffffff167f8be0079c531659141344cd1fd0a4f28419497f9722a3daafe3b4186f6b6457e060405160405180910390a35050565b600073ffffffffffffffffffffffffffffffffffffffff168273ffffffffffffffffffffffffffffffffffffffff16036117d157816040517f5b08ba180000000000000000000000000000000000000000000000000000000081526004016117c8919061248c565b60405180910390fd5b80600560008573ffffffffffffffffffffffffffffffffffffffff1673ffffffffffffffffffffffffffffffffffffffff16815260200190815260200160002060008473ffffffffffffffffffffffffffffffffffffffff1673ffffffffffffffffffffffffffffffffffffffff16815260200190815260200160002060006101000a81548160ff0219169083151502179055508173ffffffffffffffffffffffffffffffffffffffff168373ffffffffffffffffffffffffffffffffffffffff167f17307eab39ab6107e8899845ad3d59bd9653f200f220920489ca2b5937696c31836040516118c2919061231b565b60405180910390a3505050565b600073ffffffffffffffffffffffffffffffffffffffff168273ffffffffffffffffffffffffffffffffffffffff16036119415760006040517f64a0ae92000000000000000000000000000000000000000000000000000000008152600401611938919061248c565b60405180910390fd5b600061194f8383600061128c565b9050600073ffffffffffffffffffffffffffffffffffffffff168173ffffffffffffffffffffffffffffffffffffffff16146119c35760006040517f73c6ac6e0000000000000000000000000000000000000000000000000000000081526004016119ba919061248c565b60405180910390fd5b505050565b806006600084815260200190815260200160002090816119e8919061304e565b507ff8e1a15aba9398e019f0b49df1a4fde98ee17ae345cb5f6b5e2c27f5033e8ce782604051611a1891906125a2565b60405180910390a15050565b60008373ffffffffffffffffffffffffffffffffffffffff163b1115611bce578273ffffffffffffffffffffffffffffffffffffffff1663150b7a02868685856040518563ffffffff1660e01b8152600401611a839493929190613175565b6020604051808303816000875af1925050508015611abf57506040513d601f19601f82011682018060405250810190611abc91906131d6565b60015b611b43573d8060008114611aef576040519150601f19603f3d011682016040523d82523d6000602084013e611af4565b606091505b506000815103611b3b57836040517f64a0ae92000000000000000000000000000000000000000000000000000000008152600401611b32919061248c565b60405180910390fd5b805181602001fd5b63150b7a0260e01b7bffffffffffffffffffffffffffffffffffffffffffffffffffffffff1916817bffffffffffffffffffffffffffffffffffffffffffffffffffffffff191614611bcc57836040517f64a0ae92000000000000000000000000000000000000000000000000000000008152600401611bc3919061248c565b60405180910390fd5b505b5050505050565b606060405180602001604052806000815250905090565b6060611bf7826111ad565b506000611c02611bd5565b90506000815111611c225760405180602001604052806000815250611c4d565b80611c2c84611f85565b604051602001611c3d929190612e7e565b6040516020818303038152906040525b915050919050565b60007f01ffc9a7000000000000000000000000000000000000000000000000000000007bffffffffffffffffffffffffffffffffffffffffffffffffffffffff1916827bffffffffffffffffffffffffffffffffffffffffffffffffffffffff1916149050919050565b60006002600083815260200190815260200160002060009054906101000a900473ffffffffffffffffffffffffffffffffffffffff169050919050565b8080611d355750600073ffffffffffffffffffffffffffffffffffffffff168273ffffffffffffffffffffffffffffffffffffffff1614155b15611e69576000611d45846111ad565b9050600073ffffffffffffffffffffffffffffffffffffffff168373ffffffffffffffffffffffffffffffffffffffff1614158015611db057508273ffffffffffffffffffffffffffffffffffffffff168173ffffffffffffffffffffffffffffffffffffffff1614155b8015611dc35750611dc18184610fb1565b155b15611e0557826040517fa9fbf51f000000000000000000000000000000000000000000000000000000008152600401611dfc919061248c565b60405180910390fd5b8115611e6757838573ffffffffffffffffffffffffffffffffffffffff168273ffffffffffffffffffffffffffffffffffffffff167f8c5be1e5ebec7d5bd14f71427d1e84f3dd0314c0f7b2291e5b200ac8c7c3b92560405160405180910390a45b505b836004600085815260200190815260200160002060006101000a81548173ffffffffffffffffffffffffffffffffffffffff021916908373ffffffffffffffffffffffffffffffffffffffff16021790555050505050565b611ecc838383612053565b611f8057600073ffffffffffffffffffffffffffffffffffffffff168373ffffffffffffffffffffffffffffffffffffffff1603611f4157806040517f7e273289000000000000000000000000000000000000000000000000000000008152600401611f3891906125a2565b60405180910390fd5b81816040517f177e802f000000000000000000000000000000000000000000000000000000008152600401611f77929190612c4d565b60405180910390fd5b505050565b606060006001611f9484612114565b01905060008167ffffffffffffffff811115611fb357611fb2612633565b5b6040519080825280601f01601f191660200182016040528015611fe55781602001600182028036833780820191505090505b509050600082602001820190505b600115612048578080600190039150507f3031323334353637383961626364656600000000000000000000000000000000600a86061a8153600a858161203c5761203b613203565b5b04945060008503611ff3575b819350505050919050565b60008073ffffffffffffffffffffffffffffffffffffffff168373ffffffffffffffffffffffffffffffffffffffff161415801561210b57508273ffffffffffffffffffffffffffffffffffffffff168473ffffffffffffffffffffffffffffffffffffffff1614806120cc57506120cb8484610fb1565b5b8061210a57508273ffffffffffffffffffffffffffffffffffffffff166120f283611235565b73ffffffffffffffffffffffffffffffffffffffff16145b5b90509392505050565b600080600090507a184f03e93ff9f4daa797ed6e38ed64bf6a1f0100000000000000008310612172577a184f03e93ff9f4daa797ed6e38ed64bf6a1f010000000000000000838161216857612167613203565b5b0492506040810190505b6d04ee2d6d415b85acef810000000083106121af576d04ee2d6d415b85acef810000000083816121a5576121a4613203565b5b0492506020810190505b662386f26fc1000083106121de57662386f26fc1000083816121d4576121d3613203565b5b0492506010810190505b6305f5e1008310612207576305f5e10083816121fd576121fc613203565b5b0492506008810190505b612710831061222c57612710838161222257612221613203565b5b0492506004810190505b6064831061224f576064838161224557612244613203565b5b0492506002810190505b600a831061225e576001810190505b80915050919050565b6000604051905090565b600080fd5b600080fd5b60007fffffffff0000000000000000000000000000000000000000000000000000000082169050919050565b6122b08161227b565b81146122bb57600080fd5b50565b6000813590506122cd816122a7565b92915050565b6000602082840312156122e9576122e8612271565b5b60006122f7848285016122be565b91505092915050565b60008115159050919050565b61231581612300565b82525050565b6000602082019050612330600083018461230c565b92915050565b600081519050919050565b600082825260208201905092915050565b60005b83811015612370578082015181840152602081019050612355565b60008484015250505050565b6000601f19601f8301169050919050565b600061239882612336565b6123a28185612341565b93506123b2818560208601612352565b6123bb8161237c565b840191505092915050565b600060208201905081810360008301526123e0818461238d565b905092915050565b6000819050919050565b6123fb816123e8565b811461240657600080fd5b50565b600081359050612418816123f2565b92915050565b60006020828403121561243457612433612271565b5b600061244284828501612409565b91505092915050565b600073ffffffffffffffffffffffffffffffffffffffff82169050919050565b60006124768261244b565b9050919050565b6124868161246b565b82525050565b60006020820190506124a1600083018461247d565b92915050565b6124b08161246b565b81146124bb57600080fd5b50565b6000813590506124cd816124a7565b92915050565b600080604083850312156124ea576124e9612271565b5b60006124f8858286016124be565b925050602061250985828601612409565b9150509250929050565b60008060006060848603121561252c5761252b612271565b5b600061253a868287016124be565b935050602061254b868287016124be565b925050604061255c86828701612409565b9150509250925092565b60006020828403121561257c5761257b612271565b5b600061258a848285016124be565b91505092915050565b61259c816123e8565b82525050565b60006020820190506125b76000830184612593565b92915050565b6125c681612300565b81146125d157600080fd5b50565b6000813590506125e3816125bd565b92915050565b60008060408385031215612600576125ff612271565b5b600061260e858286016124be565b925050602061261f858286016125d4565b9150509250929050565b600080fd5b600080fd5b7f4e487b7100000000000000000000000000000000000000000000000000000000600052604160045260246000fd5b61266b8261237c565b810181811067ffffffffffffffff8211171561268a57612689612633565b5b80604052505050565b600061269d612267565b90506126a98282612662565b919050565b600067ffffffffffffffff8211156126c9576126c8612633565b5b6126d28261237c565b9050602081019050919050565b82818337600083830152505050565b60006127016126fc846126ae565b612693565b90508281526020810184848401111561271d5761271c61262e565b5b6127288482856126df565b509392505050565b600082601f83011261274557612744612629565b5b81356127558482602086016126ee565b91505092915050565b60008060006060848603121561277757612776612271565b5b600084013567ffffffffffffffff81111561279557612794612276565b5b6127a186828701612730565b935050602084013567ffffffffffffffff8111156127c2576127c1612276565b5b6127ce86828701612730565b92505060406127df86828701612409565b9150509250925092565b600067ffffffffffffffff82111561280457612803612633565b5b61280d8261237c565b9050602081019050919050565b600061282d612828846127e9565b612693565b9050828152602081018484840111156128495761284861262e565b5b6128548482856126df565b509392505050565b600082601f83011261287157612870612629565b5b813561288184826020860161281a565b91505092915050565b600080600080608085870312156128a4576128a3612271565b5b60006128b2878288016124be565b94505060206128c3878288016124be565b93505060406128d487828801612409565b925050606085013567ffffffffffffffff8111156128f5576128f4612276565b5b6129018782880161285c565b91505092959194509250565b600081519050919050565b600082825260208201905092915050565b6000819050602082019050919050565b612942816123e8565b82525050565b60006129548383612939565b60208301905092915050565b6000602082019050919050565b60006129788261290d565b6129828185612918565b935061298d83612929565b8060005b838110156129be5781516129a58882612948565b97506129b083612960565b925050600181019050612991565b5085935050505092915050565b600060208201905081810360008301526129e5818461296d565b905092915050565b6000608082019050612a026000830187612593565b612a0f6020830186612593565b612a1c6040830185612593565b612a29606083018461247d565b95945050505050565b60008060408385031215612a4957612a48612271565b5b6000612a57858286016124be565b9250506020612a68858286016124be565b9150509250929050565b7f4e487b7100000000000000000000000000000000000000000000000000000000600052602260045260246000fd5b60006002820490506001821680612ab957607f821691505b602082108103612acc57612acb612a72565b5b50919050565b6000606082019050612ae7600083018661247d565b612af46020830185612593565b612b01604083018461247d565b949350505050565b7f4974656d20646f6573206e6f7420657869737400000000000000000000000000600082015250565b6000612b3f601383612341565b9150612b4a82612b09565b602082019050919050565b60006020820190508181036000830152612b6e81612b32565b9050919050565b7f496e73756666696369656e74204554482073656e740000000000000000000000600082015250565b6000612bab601583612341565b9150612bb682612b75565b602082019050919050565b60006020820190508181036000830152612bda81612b9e565b9050919050565b7f43616e6e6f742062757920796f7572206f776e204e4654000000000000000000600082015250565b6000612c17601783612341565b9150612c2282612be1565b602082019050919050565b60006020820190508181036000830152612c4681612c0a565b9050919050565b6000604082019050612c62600083018561247d565b612c6f6020830184612593565b9392505050565b600081905092915050565b50565b6000612c91600083612c76565b9150612c9c82612c81565b600082019050919050565b6000612cb282612c84565b9150819050919050565b7f455448207472616e73666572206661696c656400000000000000000000000000600082015250565b6000612cf2601383612341565b9150612cfd82612cbc565b602082019050919050565b60006020820190508181036000830152612d2181612ce5565b9050919050565b7f5072696365206d7573742062652067726561746572207468616e203000000000600082015250565b6000612d5e601c83612341565b9150612d6982612d28565b602082019050919050565b60006020820190508181036000830152612d8d81612d51565b9050919050565b7f4e487b7100000000000000000000000000000000000000000000000000000000600052601160045260246000fd5b6000612dce826123e8565b91507fffffffffffffffffffffffffffffffffffffffffffffffffffffffffffffffff8203612e0057612dff612d94565b5b600182019050919050565b6000606082019050612e206000830186612593565b612e2d6020830185612593565b612e3a6040830184612593565b949350505050565b600081905092915050565b6000612e5882612336565b612e628185612e42565b9350612e72818560208601612352565b80840191505092915050565b6000612e8a8285612e4d565b9150612e968284612e4d565b91508190509392505050565b60008190508160005260206000209050919050565b60006020601f8301049050919050565b600082821b905092915050565b600060088302612f047fffffffffffffffffffffffffffffffffffffffffffffffffffffffffffffffff82612ec7565b612f0e8683612ec7565b95508019841693508086168417925050509392505050565b6000819050919050565b6000612f4b612f46612f41846123e8565b612f26565b6123e8565b9050919050565b6000819050919050565b612f6583612f30565b612f79612f7182612f52565b848454612ed4565b825550505050565b600090565b612f8e612f81565b612f99818484612f5c565b505050565b5b81811015612fbd57612fb2600082612f86565b600181019050612f9f565b5050565b601f82111561300257612fd381612ea2565b612fdc84612eb7565b81016020851015612feb578190505b612fff612ff785612eb7565b830182612f9e565b50505b505050565b600082821c905092915050565b600061302560001984600802613007565b1980831691505092915050565b600061303e8383613014565b9150826002028217905092915050565b61305782612336565b67ffffffffffffffff8111156130705761306f612633565b5b61307a8254612aa1565b613085828285612fc1565b600060209050601f8311600181146130b857600084156130a6578287015190505b6130b08582613032565b865550613118565b601f1984166130c686612ea2565b60005b828110156130ee578489015182556001820191506020850194506020810190506130c9565b8683101561310b5784890151613107601f891682613014565b8355505b6001600288020188555050505b505050505050565b600081519050919050565b600082825260208201905092915050565b600061314782613120565b613151818561312b565b9350613161818560208601612352565b61316a8161237c565b840191505092915050565b600060808201905061318a600083018761247d565b613197602083018661247d565b6131a46040830185612593565b81810360608301526131b6818461313c565b905095945050505050565b6000815190506131d0816122a7565b92915050565b6000602082840312156131ec576131eb612271565b5b60006131fa848285016131c1565b91505092915050565b7f4e487b7100000000000000000000000000000000000000000000000000000000600052601260045260246000fdfea2646970667358221220e3dfbb71f4ea15d2a9eaeca6f2c976e46e7b88746a242deebb7c1b373fed91e364736f6c634300081c0033",
  "linkReferences": {},
  "deployedLinkReferences": {}
}